:10F000000C9438780C944A780C944A780C944A788A
:10F010000C944A780C944A780C944A780C944A7868
:10F020000C944A780C944A780C944A780C944A7858
:10F030000C944A780C944A780C944A780C944A7848
:10F040000C944A780C944A780C944A780C944A7838
:10F050000C944A780C944A780C944A780C944A7828
:10F060000C944A780C944A780C944A780C944A7818
:10F0700011241FBECFEFD0E1DEBFCDBF11E0A0E075
:10F08000B1E001C01D92A230B107E1F70E944E7AB3
:10F090000C94D37C0C94007807C021EE32E0000081
:10F0A00021503040E1F701970097B9F7089584B1F6
:10F0B000806A84B92F9880E58CBD08958EBD0DB40B
:10F0C00007FEFDCF8EB508951EBC0DB407FEFDCF23
:10F0D0008EB508952C9808952C9A0895982F2C9801
:10F0E00085E08EBD0DB407FEFDCF8EB59EBD0DB47F
:10F0F00007FEFDCF8EB56EBD0DB407FEFDCF8EB5FC
:10F100004EBD0DB407FEFDCF8EB52C9A0895982FF5
:10F110002C9883E08EBD0DB407FEFDCF8EB59EBD4D
:10F120000DB407FEFDCF8EB51EBC0DB407FEFDCF9E
:10F130008EB52C9A0895982F2C9882E08EBD0DB430
:10F1400007FEFDCF8EB59EBD0DB407FEFDCF8EB57B
:10F150006EBD0DB407FEFDCF8EB52C9A08951F939A
:10F16000182F8FE060EE412F0E946E788FE00E9492
:10F17000877890E0807E811391E0892F1F91089518
:10F18000982F2C9882E08EBD0DB407FEFDCF8EB572
:10F190009EBD0DB407FEFDCF8EB5FB0107C080817B
:10F1A0008EBD0DB407FEFDCF31968EB58E2F861B1A
:10F1B0008417A8F32C9A0895982F2C9883E08EBD7D
:10F1C0000DB407FEFDCF8EB59EBD0DB407FEFDCF7D
:10F1D0008EB5FB019FEF06C09EBD0DB407FEFDCFAF
:10F1E0008EB581938E2F861B8417B0F32C9A0895C9
:10F1F000249A2C9A2C9880EC8EBD0DB407FEFDCF7E
:10F200008EB52C9A8FEF90E00E944C7880E80E9497
:10F21000AF788823F9F48AE263E00E949B7889E260
:10F2200060E90E949B7888E262E00E949B788BE212
:10F2300060E00E949B7880E660E60E949B788CE00C
:10F2400060E00E949B788DE060E00E949B7880E007
:10F250000E94AF780895A4E0B0E0E1E3F9E70C94F0
:10F26000797C6A01B22E9B01AC01E5E15695479588
:10F2700037952795EA95D1F729839C01442755278F
:10F2800023707B018C013DE016950795F794E79478
:10F290003A95D1F730EEE3222E2928602A83272FD2
:10F2A000382F492F55272B836C8381E3BE016F5F75
:10F2B0007F4F44E00E94C07885E36B2D0E949B78CD
:10F2C00086E3B6014B2D0E94C0782C9881E88EBD54
:10F2D0000DB407FEFDCF8EB52C9A2496E9E00C9470
:10F2E000957C8CE20E94877881700895A4E0B0E05C
:10F2F000ECE7F9E70C94787C8C01F62EE72E81E69A
:10F30000BE016F5F7F4F44E00E94DC788A81A82EA7
:10F31000BB24CC24DD242B8130E040E050E0542F8E
:10F32000432F322F2227898190E0A0E0B0E075E1E1
:10F33000880F991FAA1FBB1F7A95D1F7282B392B4D
:10F340004A2B5B2B8C8190E0A0E0B0E0282B392B7E
:10F350004A2B5B2BD601C50183709070A070B070F2
:10F36000DC0199278827282B392B4A2B5B2B80EE31
:10F3700090E0A0E0B0E0A822B922CA22DB22FDE0A2
:10F38000AA0CBB1CCC1CDD1CFA95D1F72A293B2901
:10F390004C295D29D8012D933D934D935C93139790
:10F3A00085E60E948778182F1F702F2D3E2DC901EA
:10F3B0007C0100E008C0802F8A590E948778F701FD
:10F3C00081937F010F5F0117B0F38CE261E040E0B1
:10F3D0000E946E78812F2496EAE00C94947CBC0104
:10F3E0007695679540E050E02FEF3FEF32C0859172
:10F3F00094912927922F92959227092E969596956A
:10F400009025092E969590259770022E232F96957C
:10F4100007949795302D292706949795302529270D
:10F420002827822F82958227082E8695869580250B
:10F43000082E869580258770022E232F86950794A7
:10F440008795302D282706948795302528274F5FEC
:10F450005F4FFA01EE0FFF1F4617570708F4C7CF9B
:10F46000C9010895EF92FF920F931F9382E190E0FC
:10F470000E94AF7C8C0180E190E00E94AF7C7C0117
:10F48000C8010E94EF7920E08E159F0509F421E064
:10F49000822F1F910F91FF90EF900895A1E2B1E0AC
:10F4A000E4E5FAE70C94707C2FE088E190E00FB679
:10F4B000F894A895809360000FBE20936000A895F3
:10F4C00082E090E00E94A77C082F83E090E00E94F9
:10F4D000A77C382F20E0E02EFF24E22AF32AEFEF6A
:10F4E000AE2EE3E0BE2EEA20FB2084B1806A84B910
:10F4F0002F9880E58CBD0E94F878C701906A9C0126
:10F5000040E050E04061C25EDE4F288339834A8389
:10F510005B83CE51D14084E08D8381E08E8384B7BC
:10F520008F8314BE8E010B5F1F4FC25EDE4F68815A
:10F5300079818A819B81CE51D140A80123E00E942C
:10F540002B7931E0CB5EDE4F3883C551D140222488
:10F550003324C65EDE4F0883CA51D140C55EDE4FFC
:10F560001883CB51D140A70160E070E0CA5EDE4F46
:10F57000488359836A837B83C651D140BE016B5E49
:10F580007E4FC45EDE4F79836883CC51D140A8950D
:10F590000E947179882309F45CC1CE010196C65E90
:10F5A000DE4F6881CA51D140C55EDE4F7881CB51B4
:10F5B000D1400E947679682F29813A814B815C8104
:10F5C0007AE056954795379527957A95D1F7337018
:10F5D00040705070CA5EDE4F88819981AA81BB81DC
:10F5E000C651D140281739074A075B0731F02F3140
:10F5F00031054105510509F02CC1623008F429C1DB
:10F600009D81913009F025C18E81893009F44FC068
:10F610008A3080F4853089F1863030F48130E9F029
:10F62000833009F016C11CC0863099F1883009F08A
:10F6300010C138C0843109F4BEC0853138F480313E
:10F6400009F43FC0823109F004C172C0863109F467
:10F65000BFC0853209F0FDC0C8C092E09E8320C0C3
:10F66000A4E0AE83CB5EDE4FB881C551D140BB2351
:10F6700011F01F82B8C09F83B6C028E088E190E0F7
:10F680000FB6F894A895809360000FBE2093600099
:10F69000FFCFE7E0EE83CB5EDE4F1882C551D1404D
:10F6A00022E0B0C0E0910001F09101010995FAE07B
:10F6B000FE8352E0A52EAF8284E090E00E94A77CFA
:10F6C0009FC0EF818E2F90E08F709070892B11F486
:10F6D00022243324F0E0A5E1B0E0AC0FBD1FAE0F53
:10F6E000BF1F88858C93A6E1B0E0AC0FBD1FAE0FA5
:10F6F000BF1F89858C93A7E1B0E0AC0FBD1FAE0F93
:10F70000BF1F8A858C9348E1C42ED12CCC0EDD1E00
:10F71000EC0DFD1D8B85808324E030E0220E331E2E
:10F7200030E12316310408F494C041E14E83B8CF90
:10F730008F81482F50E0188500E0402B512BF9991C
:10F74000FECF33E0A32EFA01A0925700E89507B64A
:10F7500000FCFDCF9A01DE0155968C911196FC902C
:10F760001197EE246701C80ED11C1296AA24A39407
:10F77000F9010601A0925700E89511242E5F3F4F32
:10F78000C45EDE4FC880D980CC51D140AC15BD05D8
:10F7900021F725E0A22EFA01A0925700E89507B6BE
:10F7A00000FCFDCF91E1B92EB0925700E89583E1BE
:10F7B000C82ECE8275CF788466248F8190E086290A
:10F7C000972969850E94B57C05E1D02EDE8268CF3D
:10F7D00027E12E83988488248F8190E088299929B5
:10F7E0000E94A77C8F8323E00DC05F80442488851E
:10F7F00090E0842995290E94EF7936E23E839F8329
:10F80000888724E069817A818B819C817370807004
:10F8100090701AE0660F771F881F991F1A95D1F70D
:10F820008061CA5EDE4FA880B980CA80DB80C65185
:10F83000D1406A297B298C299D29C65EDE4F4881EB
:10F84000CA51D140C55EDE4F5881CB51D1400E9494
:10F850002B79CB5EDE4FB880C551D140BB2009F477
:10F8600096CE2B2D2F5FCB5EDE4F2883C551D14026
:10F8700082E390E00E944C7882E390E00E944C7812
:10F88000CB5EDE4F3881C551D140333308F47FCE93
:10F890000E94327A8823F1F484E08D8782E08E879B
:10F8A000C25EDE4F688179818A819B81CE51D140D1
:10F8B000AE01435F5F4F22E00E942B792EE088E18A
:10F8C00090E00FB6F894A895809360000FBE209347
:10F8D0006000FFCFE0910001F0910101099557CE42
:10F8E0002F923F924F925F926F927F928F929F9250
:10F8F000AF92BF92CF92DF92EF92FF920F931F933E
:10F90000CF93DF93CDB7DEB7CA1BDB0B0FB6F894EE
:10F91000DEBF0FBECDBF09942A88398848885F842E
:10F920006E847D848C849B84AA84B984C884DF809F
:10F93000EE80FD800C811B81AA81B981CE0FD11D83
:10F940000FB6F894DEBF0FBECDBFED010895F99953
:10F95000FECF92BD81BDF89A992780B50895A8E1A0
:10F96000B0E042E050E00C94C57C262FF999FECF20
:10F970001FBA92BD81BD20BD0FB6F894FA9AF99ACC
:10F980000FBE01960895DC01CB01FC01F999FECF71
:10F9900006C0F2BDE1BDF89A319600B40D92415017
:0AF9A0005040B8F70895F894FFCF27
:040000030000F00009
:00000001FF
