:100000000C943D020C9462020C9462020C94620205
:100010000C9462020C9462020C9462020C946202D0
:100020000C9462020C9462020C9462020C946202C0
:100030000C9462020C9462020C9462020C946202B0
:100040000C9462020C9462020C9473050C9462028C
:100050000C9462020C9462020C9462020C94620290
:100060000C9462020C9462020C9462020C94620280
:100070001F0323031F0325031F0325031F031F0360
:1000800025031F0325031F03AA09400BAD09400BDD
:10009000B109400B400B400BB409400B400B400B27
:1000A000400B400B400B400B400B400B400BBD097D
:1000B000400BD309400BE109400B400B400B400BB8
:1000C000400B090A400B3D0A480A400B4D0A400B01
:1000D000400B400B400B400B550A400B860A400B6F
:1000E000B70A400BE80A400B200BFD0FE30FEB0FA4
:1000F000D00F0010E60F1210DA0F0510D50F0D10FB
:100100000A10F80FE00F0A101210DD0F0D10F50F96
:10011000F00FB2109910D010AD10DE10DE10DA1012
:100120009410D510A810DE10A310B710C6109E10A2
:10013000BC10CB10C11068166616641662166016E5
:100140005E165A165816D219DC19C319F019D719A8
:10015000FE19C819FA19BE19F519FE19EB19CD19AE
:10016000E119FE19FE19B919E619B419C91CC71C01
:10017000C51CC31CC11CBF1CBD1CBB1CF9222123F8
:1001800029237C2342234E23572370237C23A2233D
:10019000AD23B82342294529262936292E293A2973
:1001A0002A2945291E293E29452945294529452928
:1001B00045292229322943414E49585F5645525319
:1001C000494F4E5F302E392E355F007274633A20EE
:1001D0006E6F206D6F72652068616E646C657273FE
:1001E0000069646C653A206E6F206D6F72652068DF
:1001F000616E646C657273007265675F6672616DD3
:10020000653A206E6F206D6F72652068616E646C58
:10021000657273004544533A20646F6E652E004545
:1002200044533A20666F726D6174696E672E2E2E8C
:10023000004544533A2064617461207370616365C2
:10024000206E6F7420666F726D6174656400454442
:10025000533A20646174612073706163652069732F
:1002600020666F726D617465642E004544533A20B8
:10027000666F726D61743A2070203D2025642C20D9
:1002800073697A653D25640045445320636F6E664B
:1002900069672052414D206F766572666C6F7700FA
:1002A00045445320636F6E6669672F6669726D7788
:1002B00061726520636F6D706174206572726F7218
:1002C000006865697A2D73746F7020626567696E66
:1002D00020286865697A756E672025642C20726510
:1002E000656420256429007A6569747A6F6E653AC1
:1002F000206E6F206D6174636821006B65696E65A7
:100300002053656E736F722D4D65737377657274CC
:100310006520766F7268616E64656E21006B656939
:100320006E652053656E736F722D4D6573737765BF
:1003300072746520766F7268616E64656E210076F6
:10034000656E74696C70666C6567653A203100682B
:1003500065697A2D73746F7020656E6465202868F6
:1003600065697A756E6720256429006865697A7504
:100370006E672025643A2076656E74696C70666CD1
:10038000656765004865697A73746F7020616B7486
:100390006976202869643D256429006865697A7555
:1003A0006E675F696E69743A2025640068656C6CDD
:1003B00069676B6569747373656E736F722D706FA7
:1003C00072743D25642E20526963687469672077D2
:1003D0006165726520494E382062697320494E314B
:1003E000352E004572723A6C617374506F746950A7
:1003F0006F733D00706F74692D706F72743D25646A
:100400002E20526963687469672077616572652080
:10041000494E382062697320494E31352E0074658B
:100420006D7073656E736F723A20696E76616C6978
:10043000642073656E736F722069640074656D70FB
:1004400073656E736F723A20696E76616C696420B1
:1004500073656E736F72206964006D656D5F66729F
:1004600065653A2025642062797465730057423DC2
:1004700025642C20693D2564000011241FBECFEFA8
:10048000D0E1DEBFCDBF11E0A0E0B1E0E2EAFFE5E0
:1004900002C005900D92A230B107D9F719E0A2E091
:1004A000B1E001C01D92A136B107E1F7E1E6F9E044
:1004B0008AEA91E18193E030F907E0F30E945D1947
:1004C0000C94CF2F0C94000040E020E030E0C901F4
:1004D000880F991FFC0153E0EE0FFF1F5A95E1F7BB
:1004E000E81BF90BED54FE4F808181114F5F2F5FA8
:1004F0003F4F2C30310559F7842F089520E030E02C
:10050000422FC901880F991FFC0173E0EE0FFF1FF6
:100510007A95E1F7E81BF90BED54FE4F80818823B3
:1005200031F42F5F3F4F2C30310551F740E0842FDD
:10053000089520E030E0422FC901880F991FFC0187
:10054000A3E0EE0FFF1FAA95E1F7E81BF90BED54AE
:10055000FE4F8081882331F02F5F3F4F2C303105D3
:1005600051F740E0842F08951092AA011092A6013D
:100570001092A7011092A8011092A9011092AB014C
:100580001092AC011092AD011092AE018FEF8093EA
:10059000AF011092B0011092B1011092B20195E03A
:1005A00095BD91E090936E0086BD08958091AE0157
:1005B0008F5F8093AE018091AE018C3309F05DC0F6
:1005C0001092AE018091AD018F5F8093AD0180915B
:1005D000AD018C3309F051C01092AD018091AF0193
:1005E0008F3F29F08091AF018F5F8093AF018091A1
:1005F000AC018F5F8093AC018091AC018831E9F54B
:100600001092AC018091AB018F5F8093AB01809120
:10061000AB01883019F481E08093AB018091B00187
:100620008F5F8093B0018091B10190E0FC01319720
:10063000EC30F10530F4E85CFF4F0C94EC2C9FE1BA
:1006400005C090E003C09CE101C09EE18091B00133
:10065000981798F491E09093B0018091B1018F5F69
:100660008093B1018091B1018D3038F09093B10148
:100670008091B2018F5F8093B20108958091AF01A4
:1006800090E08F3F09F091E0892F08950F931F9319
:10069000CF93DF938C01C6E1D1E0E881F9813097F7
:1006A00001F12A813B818FEF2F3F380741F0D801BC
:1006B00012968D919C9113972817390791F49C817C
:1006C000992329F0D80114968C91981751F49D81A3
:1006D000992329F0D80116968C91981711F4C80126
:1006E00009952696B1E0C637DB07B9F6DF91CF91C1
:1006F0001F910F91089528E088E190E00FB6F894DB
:10070000A895809360000FBE20936000FFCFA2E108
:10071000B0E0EDE8F3E00C94BD2C06E711E0E5E075
:10072000AE2EB12CAC0EBD1E7BE0C72ED12CCC0E54
:10073000DD1E7E010894E11CF11C0E9495088823AF
:1007400031F1C701B6010E949C088A8789819A818C
:10075000AB81BC819C01AD016AE056954795379508
:1007600027956A95D1F7337038872F839C013370B2
:100770003E832D8324E1B695A795979587952A9575
:10078000D1F787708987C5010E94460306C0D8014A
:10079000ED91FC91309709F009950E5F1F4FB1E084
:1007A00006381B0751F66296EAE00C94D92C982F74
:1007B000809112018823F9F481E080931201892F3E
:1007C00090E0A0E0B0E08093A2019093A301A093F9
:1007D000A401B093A5010E9487038091A20190918A
:1007E000A301A091A401B091A5010097A105B105B5
:1007F00091F710921201089510925C0210925B0220
:10080000A8950E94870380915B0290915C020196FB
:1008100090935C0280935B02F3CF9C01A6E8B1E069
:10082000E0E0F0E08D919C911197892B39F4EE0F67
:10083000FF1FEA57FE4F31832083089531961296A9
:10084000E830F10579F700D00F9281E0EDB7FEB7FF
:1008500081838BEC91E0938382830E94070C0F903D
:100860000F900F9008959C01A6E7B1E0E0E0F0E062
:100870008D919C911197892B39F4EE0FFF1FEA5847
:10088000FE4F31832083089531961296E830F105AA
:1008900079F700D00F9281E0EDB7FEB7818381EE4A
:1008A00091E0938382830E94070C0F900F900F902A
:1008B0000895CF93DF93EC01E6E1F1E0A0E0B0E032
:1008C00080819181892BB9F4FD01EE0FFF1FEA0FA2
:1008D000FB1FEE0FFF1FDF01AA5EBE4F1196DC93D8
:1008E000CE93E85EFE4F7183608314964C93149709
:1008F00015962C9314C011963696A031B10501F7C8
:1009000000D00F9281E0EDB7FEB7818388EF91E0D0
:10091000938382830E94070C0F900F900F90DF91BA
:10092000CF9108951F93CF93DF93EC01162F0E9470
:10093000FD078823F1F16A817B8180E090E073708C
:1009400080709070AAE0660F771F881F991FAA9584
:10095000D1F72C8130E040E050E0277030704070DB
:100960005070F4E1220F331F441F551FFA95D1F741
:10097000622B732B842B952B2881398140E050E02A
:10098000337040705070622B732B842B952B212F6A
:1009900030E040E050E0522F442733272227622BDB
:1009A000732B842B952BAE014A5F5F4F2D810E94E4
:1009B0006107CE010E944603DF91CF911F910895F8
:1009C00063E00E94920408950F931F938091130196
:1009D00090911401892B99F482E090E00E94142FE9
:1009E000082F83E090E00E94142F382F20E010E0C1
:1009F000202B312B337030931401209313018091FD
:100A00001301909114011F910F9108951F930E945B
:100A1000B402E6E1F1E011821082369681E0E63719
:100A2000F807C9F7E6E7F1E01192119281E0E638A4
:100A3000F807D1F7E6E8F1E01192119281E0E6398A
:100A4000F807D1F720E030E0C901880F991FFC01B9
:100A5000B3E0EE0FFF1FBA95E1F7E81BF90BED5479
:100A6000FE4F10822F5F3F4F2C30310569F70E94F7
:100A7000B1060E941009182F0E94E404BC018BE803
:100A800099E041E021E00E9459048BE899E064E29A
:100A900070E041E021E00E94590484E49BE064E2BC
:100AA00070E041E026E00E9459040E94E404BC0189
:100AB00084E49BE041E026E00E94590485E090E058
:100AC0000E94142F0E94040C78940E94EF0E0E9442
:100AD000E404BC0181E39EE041E027E00E94590468
:100AE000812F1F9108951F920F920FB60F9211241C
:100AF0000F931F932F933F934F935F936F937F9326
:100B00008F939F93AF93BF93EF93FF93DF93CF9315
:100B1000CDB7DEB72C97DEBFCDBF8FEF86BD0E946D
:100B20001208882309F4A0C0CE010196BE016B5FB4
:100B30007F4F0E941708182F0E9464028C3008F023
:100B400080C020E030E0622FC901880F991FFC01AE
:100B500003E0EE0FFF1F0A95E1F7E81BF90BED54D8
:100B6000FE4F8081882331F02F5F3F4F2C303105BD
:100B700051F760E0862F90E0880F991FFC01A3E0F9
:100B8000EE0FFF1FAA95E1F7E81BF90BED54FE4F9E
:100B900081E0808329813A814B815C81862F90E0BE
:100BA000880F991FFC0173E0EE0FFF1F7A95E1F7A4
:100BB000E81BF90BED54FE4F2183328343835483AA
:100BC000862F90E0880F991FFC0143E0EE0FFF1F76
:100BD0004A95E1F7E81BF90BED54FE4F158340E011
:100BE00050E0DE01159617C0FD01E40FF51F2081CE
:100BF000862F90E0880F991FFC0103E0EE0FFF1F86
:100C00000A95E1F7E81BF90BED54FE4FE40FF51FD1
:100C100026834F5F5F4F411738F380910201909117
:100C20000301A0910401B09105010196A11DB11D20
:100C30008093020190930301A0930401B0930501F6
:100C400013C08091060190910701A0910801B09115
:100C500009010196A11DB11D809306019093070122
:100C6000A0930801B0930901809115018F5F8093D3
:100C700015018150833208F45CC0109215018091F7
:100C8000AA018F5F8093AA018091AA01843619F589
:100C90001092AA018091A6019091A701A091A801AC
:100CA000B091A9010196A11DB11D8093A601909359
:100CB000A701A093A801B093A90180915B02909134
:100CC0005C0290935E0280935D0210925C0210922F
:100CD0005B020E94D60206E811E0D801ED91FC917A
:100CE000309709F009950E5F1F4FB1E006391B07D9
:100CF000A1F78091A2019091A301A091A401B091CC
:100D0000A501181619061A061B069CF48091A2016B
:100D10009091A301A091A401B091A5010197A1090F
:100D2000B1098093A2019093A301A093A401B09371
:100D3000A5012C96DEBFCDBFCF91DF91FF91EF9142
:100D4000BF91AF919F918F917F916F915F914F91E3
:100D50003F912F911F910F910F900FBE0F901F90F9
:100D6000189584B1806A84B92F9880E58CBD81E0A4
:100D70008DBD08958EBD0DB407FEFDCF8EB50895CF
:100D80001EBC0DB407FEFDCF8EB508952C980895B6
:100D90002C9A0895982F2C9885E08EBD0DB407FEEF
:100DA000FDCF8EB59EBD0DB407FEFDCF8EB56EBDD9
:100DB0000DB407FEFDCF8EB54EBD0DB407FEFDCFC1
:100DC0008EB52C9A0895982F2C9883E08EBD0DB483
:100DD00007FEFDCF8EB59EBD0DB407FEFDCF8EB5CF
:100DE0001EBC0DB407FEFDCF8EB52C9A0895982F2A
:100DF0002C9882E08EBD0DB407FEFDCF8EB59EBD52
:100E00000DB407FEFDCF8EB56EBD0DB407FEFDCF50
:100E10008EB52C9A08951F93182F8FE060EE412F06
:100E20000E94CA068FE00E94E30690E0807E811354
:100E300091E0892F1F910895982F2C9882E08EBD04
:100E40000DB407FEFDCF8EB59EBD0DB407FEFDCFE0
:100E50008EB5FB0107C080818EBD0DB407FEFDCFAE
:100E600031968EB58E2F861B8417A8F32C9A089581
:100E7000982F2C9883E08EBD0DB407FEFDCF8EB564
:100E80009EBD0DB407FEFDCF8EB5FB019FEF06C0E2
:100E90009EBD0DB407FEFDCF8EB581938E2F861BB0
:100EA0008417B0F32C9A0895F8948295807F805D22
:100EB0000E94E30678948695869586958095817044
:100EC0000895A4E0B0E0E7E6F7E00C94BD2C7B01C8
:100ED0008C015A01C22E80E00E945407882329F514
:100EE00081E00E945407882319F0DD24D3941EC0AA
:100EF00082E00E945407882319F042E0D42E16C0E5
:100F000080910E0190910F01A0911001B0911101FB
:100F10000196A11DB11D80930E0190930F01A09326
:100F20001001B093110181E064C0DD24F894D80170
:100F3000C70135E1B695A795979587953A95D1F76D
:100F40008983C801AA27BB278370A80197019DE068
:100F500056954795379527959A95D1F7207E822B00
:100F600088608A83BB27A12F902F8F2D8B83EC82E3
:100F70001D2D1295107F812F8F5CBE016F5F7F4FFB
:100F800044E00E941C07812F8B5C6C2D0E94F706A9
:100F9000812F8A5CB5014C2D0E941C07812F805D3A
:100FA00068E048E00E94CA062C9881E090E00D2C91
:100FB00002C0880F991F0A94E2F780688EBD0DB4B5
:100FC00007FEFDCF8EB52C9A789480910A019091FE
:100FD0000B01A0910C01B0910D010196A11DB11D55
:100FE00080930A0190930B01A0930C01B0930D0123
:100FF00080E02496EAE00C94D92C80E00E9454070B
:10100000882361F481E00E945407882339F482E048
:101010000E94540720E030E0882311F021E030E006
:10102000822F08958CE20E94E30681700895A4E067
:10103000B0E0EDE1F8E00C94BD2C8C017B0181E681
:10104000BE016F5F7F4F44E00E9438078A81A82E5F
:10105000BB24CC24DD242B8130E040E050E0542F31
:10106000432F322F2227898190E0A0E0B0E0E5E114
:10107000880F991FAA1FBB1FEA95D1F7282B392B80
:101080004A2B5B2B8C8190E0A0E0B0E0282B392B21
:101090004A2B5B2BD601C50183709070A070B07095
:1010A000DC0199278827282B392B4A2B5B2B80EED4
:1010B00090E0A0E0B0E0A822B922CA22DB226DE0D5
:1010C000AA0CBB1CCC1CDD1C6A95D1F72A293B2934
:1010D0004C295D29D8012D933D934D935C93139733
:1010E00085E60E94E306182F1F7086E6B701412FA0
:1010F0000E9438078CE261E040E00E94CA06812F1E
:101100002496EAE00C94D92C1F938DE10E94E3060B
:10111000182F8CE10E94E306512F40E0282F30E089
:10112000242B352BC9011F910895F8940E94640265
:101130007894811181E008950F931F93CF93DF93EB
:10114000EC018B01F8940E946402882311F420E0E2
:1011500060C00E947E02382F90E0880F991FFC012A
:10116000A3E0EE0FFF1FAA95E1F7E81BF90BED5482
:10117000FE4F81819281A381B48188839983AA8360
:10118000BB8320E017C0A22FB0E0832F90E0880F30
:10119000991FFC0163E0EE0FFF1F6A95E1F7E81B62
:1011A000F90BED54FE4FEA0FFB1F8681A00FB11F14
:1011B0008C932F5F832F90E0880F991FFC0143E0F1
:1011C000EE0FFF1F4A95E1F7E81BF90BED54FE4FB8
:1011D00085812817C0F2832F90E0880F991FFC01AA
:1011E00013E0EE0FFF1F1A95E1F7E81BF90BED5422
:1011F000FE4F2581832F90E0880F991FFC01A3E00B
:10120000EE0FFF1FAA95E1F7E81BF90BED54FE4F17
:1012100010827894822FDF91CF911F910F910895C2
:10122000249A2C9A2C9880EC8EBD0DB407FEFDCF2D
:101230008EB52C9A8FEF90E00E94430980E80E94BF
:101240000B078823F9F48AE263E00E94F70689E23B
:1012500060E90E94F70688E262E00E94F7068BE2EE
:1012600060E00E94F70680E660E60E94F7068CE0E8
:1012700060E00E94F7068DE060E00E94F70680E0E3
:101280000E940B07089507C021EE32E000002150B4
:101290003040E1F701970097B9F70895009711F4EE
:1012A00000C008950197F1F708950F939CE3899F7B
:1012B000F0011124E60FF11D499FB0011124620FC6
:1012C000711D8091AC012091AD01899FA001112475
:1012D000420F511D6E177F0738F460567A4F4E1734
:1012E0005F0710F440565A4F2091AB01802F90E0D9
:1012F00002C0959587952A95E2F780FF09C04E17A1
:101300005F0730F080E06417750718F081E001C0D6
:1013100080E00F910895AEE0B0E0E1E9F9E00C94CF
:10132000C12C7C010E94E4049A838983F7018081A7
:1013300091819C838B8381E08D838F83878190E073
:10134000FC013197E133F10508F09AC1EC5BFF4FE6
:101350000C94EC2C82E088876DC184E0888782E061
:101360002DC00E947B038CC18AE0888782E0898738
:1013700084E090E00E94142F95C0F701918580E0F1
:101380002085022F10E0082B192BC8010E94142F72
:10139000F7016285861719F0C8010E941C2F85E1AC
:1013A000888782E047C187E18887F701918580E0DF
:1013B000208530E0822B932B0E94142F898783E0B5
:1013C00039C1F701918580E0008510E0082B192BC9
:1013D00089E18887C8010E94142F8987C801019676
:1013E0000E94142F8A87C80102960E94142F8B87AF
:1013F000C80103960E94142F8C87C80104960E948E
:10140000142F8D87C80105960E94142F8E8788E0BF
:1014100011C186E08E838FE188878091A60190912B
:10142000A701A091A801B091A9018B2F9927AA2704
:10143000BB2789878091A6019091A701A091A8015F
:10144000B091A901CD01AA27BB278A878091A60167
:101450009091A701A091A801B091A901892F9A2F7D
:10146000AB2FBB278B878091A6019091A701A091FC
:10147000A801B091A9018C87DEC0F70180850E9488
:10148000040C85E090E0F70160850E941C2FF8C0F5
:1014900082E28887198688E305C00E94840824E2D6
:1014A000288799878A8784E0C5C08AE288878091E7
:1014B000020190910301A0910401B09105018B2FCD
:1014C0009927AA27BB278987809102019091030160
:1014D000A0910401B0910501CD01AA27BB278A87FD
:1014E0008091020190910301A0910401B091050146
:1014F000892F9A2FAB2FBB278B8780910201909168
:101500000301A0910401B091050192C08CE288878B
:101510008091060190910701A0910801B091090105
:101520008B2F9927AA27BB27898780910601909145
:101530000701A0910801B0910901CD01AA27BB279D
:101540008A878091060190910701A0910801B091CE
:101550000901892F9A2FAB2FBB278B87809106011A
:1015600090910701A0910801B091090161C08EE23C
:10157000888780910A0190910B01A0910C01B09194
:101580000D018B2F9927AA27BB27898780910A01F4
:1015900090910B01A0910C01B0910D01CD01AA27F2
:1015A000BB278A8780910A0190910B01A0910C01C1
:1015B000B0910D01892F9A2FAB2FBB278B8780917C
:1015C0000A0190910B01A0910C01B0910D0130C066
:1015D00080E3888780910E0190910F01A091100106
:1015E000B09111018B2F9927AA27BB27898780915A
:1015F0000E0190910F01A0911001B0911101CD0148
:10160000AA27BB278A8780910E0190910F01A09194
:101610001001B0911101892F9A2FAB2FBB278B8717
:1016200080910E0190910F01A0911001B0911101D4
:101630008C8786E08E83CE0101960E94E00420C054
:101640001092020110920301109204011092050100
:1016500010920601109207011092080110920901E0
:1016600010920A0110920B0110920C0110920D01C0
:1016700010920E0110920F011092100110921101A0
:101680002E96E6E00C94DD2CAEE0B0E0EAE4FBE060
:101690000C94BF2C7C010E94E4049A838983D701B7
:1016A0008D919C9111979C838B83DD24D394DD8253
:1016B00086E0C82ECF8217968C91823009F45FC0E5
:1016C000833020F4813009F09BC007C0833009F4D7
:1016D00061C0843009F094C079C01092AF010091CC
:1016E000AE016091AC01C090AD01F701D484828558
:1016F00090E0A0E1BEE08A9F90018B9F300D9A9F01
:10170000300D112483851CE3819FC0011124280F13
:10171000391F2D0D311D442737FD4095542F70E0A2
:101720006A9FC0016B9F900D7A9F900D1124C19EFE
:10173000F00111248E0F9F1F800F911DAA2797FD86
:10174000A095BA2F281B390B37FF03C03095219580
:101750003F4F243031050CF453C0D092AE01D70175
:101760001B968C911B978093AD011A968C911A97BA
:101770008093AC0119968C918093AB0141C0F70125
:1017800081858093B00182858093B10183858093A8
:10179000B20136C0D70112960D911C9113970E9489
:1017A000E4040817190761F5D8868FEF89878091BF
:1017B000AB018A878091AC018B878091AD018C87CA
:1017C0008091AE018D8787E08E8316C0F70102817C
:1017D00013810E94E4040817190791F482E08887B6
:1017E0008FEF89878091B0018A878091B1018B87C3
:1017F0008091B2018C87CE82CE0101960E94E004D6
:101800002E96E8E00C94DB2C809396010895AF921D
:10181000BF92CF92DF92FF920F931F93DF93CF93EC
:10182000CDB7DEB7CE58D0400FB6F894DEBF0FBEAE
:10183000CDBFC656DF4FF880CA59D040809196017F
:101840008F1508F45BC0FE01E356FF4F8E01015F68
:101850001F4FC8016EE770E0C556DF4F48815981C0
:10186000CB59D0409F010E94FD2CC80160E071E07F
:101870000E94F22C0E94E4049A8389838AEC93E00C
:101880009C838B8383E08D83FF82FF2421E087E0AC
:10189000A82EB12CAC0EBD1E6E010894C11CD11C2B
:1018A0001EC0A8950BC0F501E20FF11DA00FB11FDE
:1018B0008C9180832F5FF394283060F4F8010190BD
:1018C0000020E9F73197E01BF10BAF2DB0E0AE1728
:1018D000BF0748F32E83C6010E94E00420E0F80110
:1018E00001900020E9F73197E01BF10B8F2D90E07C
:1018F0008E179F07B0F281E00E94D703C257DF4FD7
:101900000FB6F894DEBF0FBECDBFCF91DF911F9110
:101910000F91FF90DF90CF90BF90AF900895AF925E
:10192000BF92CF92DF92FF920F931F93CF93DF93DB
:101930005C016B01FF24C42FD0E0219707C08A0D02
:101940009B1D0E94142FF8018083F3948F2D90E04B
:101950008601080F191F8C179D078CF3F801108260
:10196000DF91CF911F910F91FF90DF90CF90BF90AB
:10197000AF9008950F931F938C0101960E94142F2E
:10198000282F30E02E5F3F4F200F311FC9011F91DC
:101990000F9108950F931F93CF93DF93EC01062FC0
:1019A000142F009721F018C0C2E2D0E015C082E2E7
:1019B00090E00E94142F8017B8F31817A8F3C2E222
:1019C000D0E010C0CE010E94BA0CEC010E94142F8E
:1019D000801710F0181730F487E0CF3FD80790F346
:1019E000C0E0D0E0CE01DF91CF911F910F9108951B
:1019F0001F93CF93DF93EC01162F0097A1F482E29F
:101A000090E00E94142F811761F4C2E2D0E011C06F
:101A1000CE010E94BA0CEC010E94142F811719F418
:101A200008C0C2E2D0E087E0CF3FD80788F3C0E02B
:101A3000D0E0CE01DF91CF911F910895CF92DF9238
:101A4000EF92FF921F93CF93DF93C2E2D0E024C0C6
:101A5000E114F10409F1CE010E94142F8823E1F46E
:101A600067010894C11CD11CC6010E94142F182FB5
:101A7000CE0101960E94142F282F90E0810F911D16
:101A800002968F3F910509F038F4120F1E5FC601D0
:101A9000612F0E941C2FE701CE010E94142F882382
:101AA00019F0EE24FF2401C07E01CE010E94BA0C81
:101AB000EC0187E0CF3FD80758F2DF91CF911F911B
:101AC000FF90EF90DF90CF900895CF93DF93EC01DC
:101AD00082E290E08C179D0729F460E00E941C2FA1
:101AE00080E007C00E94BA0C27E08F3F920790F376
:101AF00082E0DF91CF910895AF92BF92DF92EF9293
:101B0000FF920F931F93CF93DF93D82EC2E2D0E0C2
:101B1000082F10E058010894A11CB11CCE010E94AE
:101B2000142F882349F57E010894E11CF11CC7019C
:101B30000E94142F8D1500F18D1541F190E0A8162B
:101B4000B906D4F40E5F1F4FCE01800F911F60E0E5
:101B50000E941C2FC7010E94142F0F5F1F4F682F78
:101B600062506D19CE01800F911F0E941C2FC7017A
:101B70006D2D0E941C2F0AC0CE010E94BA0CEC01F0
:101B800087E0CF3FD80750F2C0E0D0E0CE01DF9130
:101B9000CF911F910F91FF90EF90DF90BF90AF908A
:101BA0000895A0E0B0E0E7EDFDE00C94BB2C80E2EE
:101BB00090E064EE0E941C2F81E290E06DE70E94AD
:101BC0001C2F22E2C22ED12C9FEF892E97E0992E56
:101BD00004E08BE6A82E82E0B82E76010894E11C82
:101BE000F11CC60160E00E941C2FE401CE19DF0940
:101BF000C138D10514F0C0E8D0E01C2FC7016C2F0C
:101C00000E941C2F8DB79EB707970FB6F8949EBF02
:101C10000FBE8DBFEDB7FEB73196ADB7BEB711960B
:101C20000C93B282A182D482C382C58316820E94A1
:101C3000070C0894E11CF11C6701CC0ED11C8DB778
:101C40009EB707960FB6F8949EBF0FBE8DBF9DEF4F
:101C5000C91697E0D90608F2CDB7DEB7ECE00C94D0
:101C6000D72CAEE0B0E0E7E3FEE00C94BF2C6C01B3
:101C70000E94E4049A838983F601808191819C8388
:101C80008B8381E08D8317E01F83E780F6E0EF16FA
:101C900009F44EC0FE1560F083E0E81609F455C063
:101CA000E4E0EE16B1F1F1E0EF1609F094C00DC0DA
:101CB0008AE0E81609F477C0ECE0EE1609F489C072
:101CC000F8E0EF1609F087C043C0F601908580E088
:101CD000218530E0282B392B2115310519F402E23A
:101CE00010E00AC0C9010E94BA0C8C01F7E08F3FD6
:101CF0009F0710F000E010E082E0888719870A87CC
:101D0000C8010E94142F8B87C80101960E94142FCE
:101D100047C0F60181850E947C0D8C01F60160852B
:101D20000E941C2F85E0888719870A87EE824CC0A5
:101D3000F601908580E0218530E0822B932B0E9474
:101D4000650D1887898783E03EC00E941E0D43C041
:101D5000F601908580E0E184FF24E82AF92A0285D3
:101D600089E0888710E0C701800F911F0E94142F1F
:101D700089870F5F1F4FC701800F911F0E94142F8B
:101D80008A870F5F1F4FC701800F911F0E94142F7A
:101D90008B870F5F1F4FC701800F911F0E94142F69
:101DA0008C8786E010C0F601908580E0218530E0C8
:101DB000822B932B2285820F911D63850E941C2FFD
:101DC0008BE0888782E08E83CE0101960E94E0043A
:101DD00002C00E94D10D2E96E8E00C94DB2C1F93DC
:101DE00080E290E00E94142F843EA1F481E290E012
:101DF0000E94142F8D3771F400D00F9284E0EDB75C
:101E0000FEB781838EE492E0938382830E94070C65
:101E100080E026C000D00F9212E0EDB7FEB711832C
:101E200081E392E0938382830E94070CEDB7FEB7B3
:101E300011838FE192E0938382830E94070C0F90BD
:101E40000F900F900E94D10D00D00F92EDB7FEB70A
:101E5000118384E192E0938382830E94070C81E0E6
:101E60000F900F900F901F91089520E030E0E1E671
:101E7000F9E080818A3A39F431962F5F3F4F81E152
:101E8000E030F807B0F3C9010895382F8830A8F47E
:101E90002AB181E090E002C0880F991F3A95E2F7DD
:101EA000982F282B2AB9662319F08BB1982B03C0E1
:101EB0008BB1909598239BB908958C30B0F424B1E0
:101EC000385081E090E002C0880F991F3A95E2F700
:101ED000982F282B24B9662319F085B1982B03C0BD
:101EE00085B19095982395B908958C500E9403264A
:101EF0000895282F883010F43BB104C08C3058F47A
:101F000035B1285081E090E002C0880F991F2A95D2
:101F1000E2F7382304C08C500E943526382F832FD7
:101F200008958AB18FEF8AB984B18F6084B91BB8E4
:101F300085B1807F85B90E94E5250895E1E6F8E046
:101F40001192119289E0E136F807D1F7E1E6F2E06B
:101F5000119288E0E136F807D9F70895AEE0B0E0D5
:101F6000E4EBFFE00C94B92C0E949E0F80E090E01F
:101F700061E04FEF0E94CA0C7C016624772488241C
:101F8000992422C1C7010E94142F90E0FC013A97C6
:101F9000E431F10508F012C1EB58FF4F0C94EC2C22
:101FA0009DE3D92E86E2C82E41C01BE0D12EB5E0BC
:101FB000CB2E3CC0A1E1DA2E1DC0F8E1DF2E08C017
:101FC000E2E1DE2E0AC07AE0D72E21C067E0D62EED
:101FD00054E0C52E2BC041E2D42E3DE0C32E26C0D6
:101FE0002DE0D22E98E0C92E21C083E2D82E1CC04D
:101FF0001CE0D12EBBE0CB2E19C0A5E0DA2E14C018
:10200000FAE1DF2EE5E1CE2E11C079E0D72E66E0B1
:10201000C62E0CC057E0D52E07C04FE0D42E3AE0B4
:10202000C32E04C026E0D22E93E0C92E5701089497
:10203000A11CB11CC5010E94142FC816A9F10E9451
:10204000E4049A8389838AEC93E09C838B8311E078
:102050001D8384E08F8383E08887C7010E94142F4B
:102060008987FA86EB86C5010E94142F8C87CD865E
:1020700087E08E83CE01019660E00E94920400D03A
:102080000F92EDB7FEB7118380EA92E093838283CB
:102090000E94070C0F900F900F900E949E0F1092BD
:1020A000600210925F0298C084010F591D4F8D0C81
:1020B000911CF301EE0FFF1FEF59F74F11830083BF
:1020C0000894611C711CF1E06F16F6E07F0680F049
:1020D00000D00F9281E0EDB7FEB7818388E892E0EF
:1020E000938382830E94070C0F900F900F9074C00F
:1020F000B7016E5F7F4FC80101964C2D50E00E94E2
:10210000042FC7010E94142FF8018083C7010E9489
:10211000142F90E0FC013C97E231F10508F04EC02D
:10212000E757FF4F0C94EC2CC801B7010E94001137
:1021300045C0C801B7010E94961240C0C801B7014E
:102140000E94E9163BC0C801B7010E943B1A36C085
:10215000C801B7010E942E1D31C0C801B7010E94FD
:102160005D1F2CC0C801B7010E94C72027C0C8014D
:10217000B7010E94952422C0C801B7010E941F2008
:102180001DC0C801B7010E94411D18C0C801B70198
:102190000E94D32513C0C801B7010E945D2B0EC059
:1021A000C801B7010E94762809C0C801B7010E9482
:1021B000EF2904C0C801B7010E94972AC70161E056
:1021C0004FEF0E94CA0C7C01E114F10409F0DACE51
:1021D0009092600280925F022E96EEE00C94D52CD5
:1021E000FC0186819781009751F001979783868340
:1021F000892B29F41286818160E00E94450F0895A1
:10220000FC0117821682108611861286818160E099
:102210000E94450F08950F931F93CF93DF93EC0116
:102220008B010E94E404F8013781383231F03B32EF
:10223000C1F0313009F059C047C0F80160858A818A
:10224000861719F421E0288706C08D81861709F0CA
:102250004CC021E0298787E090E09F838E832A8706
:1022600040C09A81F80180859817B1F48185882350
:1022700049F087E090E09F838E8381E08A8789819F
:1022800061E008C08985882339F41F821E821A867E
:10229000898160E00E94450F9D81F8018085981733
:1022A00021F58185882339F087E090E09F838E8334
:1022B00081E08A8716C088858823B9F41F821E8230
:1022C0001A86898160E00FC09B81F801808598178C
:1022D00061F48C812CE3829FC00111249F838E8343
:1022E0003A87898161E00E94450FDF91CF911F916C
:1022F0000F910895DC0180E090E0FD01E80FF91FE7
:1023000071836083029680319105B9F750961C92D3
:102310000895DC0150968C915097E82FF0E0EE0F75
:10232000FF1FEA0FFB1F718360838F5F87705096DA
:102330008C930895CF93DF93EC0120E030E040E0F0
:1023400050E060E070E0FE01E60FF71F80819181B0
:10235000A0E0B0E0280F391F4A1F5B1F6E5F7F4F60
:102360006031710581F763E056954795379527955C
:102370006A95D1F7C901DF91CF910895CF93DF938B
:10238000EC0189A5882311F420E010C06EA57FA57B
:1023900080E090E024E630E040E050E00E94262C0F
:1023A00028A939A940E050E00E94782C822FDF91C3
:1023B000CF910895CF93DF93DC0199968C919997F3
:1023C000882309F03FC0DB968D919C91DC97892B87
:1023D000C9F59091AC012091AD018091AB0187309E
:1023E00089F58CE3989FC0011124820F911D1196ED
:1023F0002C91119743E0249F9001112420533D4FCD
:1024000082179307F9F488E592E0DC969C938E930B
:10241000DB9700D000D00F92EDB7FEB7319684E085
:10242000CDB7DEB789838BE693E0928381831196E3
:102430008C91838314820E94070C0F900F900F9051
:102440000F900F90DF91CF910895CF93DF93EC0120
:102450008AAD8823F1F000D000D00F92EDB7FEB71F
:10246000319684E0ADB7BEB711968C9384E893E0C3
:10247000928381838981838314820E94070C8B81DC
:1024800088AB19AA1FA61EA60F900F900F900F9051
:102490000F90DF91CF910895CF93DF93EC018AAD38
:1024A000882321F0CE010E94251213C02B8130E039
:1024B00039AB28AB70E080E090E040E050E00E9453
:1024C000262C24E630E040E050E00E949A2C3FA702
:1024D0002EA7DF91CF910895EF92FF920F931F9354
:1024E000CF93DF938C01EB017A010E94BE11F801BA
:1024F000968D882351F0C90FD11DCE15DF058CF4C0
:10250000C80160E00E944C120CC0C91BD109EC1636
:10251000FD063CF4C80164E60E944C1282EDF8010D
:1025200082ABCDB7DEB7E6E00C94DD2CCF93DF9322
:10253000FC0170A767A311A612A615A614A617A6DC
:1025400016A611AA10AA81818F7382AB8FEF83AB7D
:1025500015AA14AA17AA16AA11AE10AE12AE14AE7E
:1025600013AE00D000D00F92ADB7BEB7119684E085
:10257000CDB7DEB789838BE993E012969C938E9357
:102580001197818113968C93139714961C920E9435
:10259000070C0F900F900F900F900F90DF91CF913D
:1025A0000895CF93DF93EC018CA59DA501969DA77F
:1025B0008CA728A939A98217930730F01DA61CA65D
:1025C0008A8161E00E94450F2CA53DA58EA59FA59F
:1025D0002817390720F08A8160E00E94450FDF91BB
:1025E000CF9108951F93CF93DF93EC01259610E0D0
:1025F00088810E949B2A882311F0812F05C01F5FCC
:1026000023961830A9F78FEFDF91CF911F9108958E
:10261000AEE0B0E0EEE0F3E10C94C22C8C01DC0102
:10262000DB968D919C91DC97009729F00197DC96C1
:102630009C938E93DB97C8010E94DA11F80183A95D
:102640008F3F11F08F5F83ABC8010E94D112D80178
:10265000D6968D919C91D797009751F00197D79678
:102660009C938E93D697892B19F483E099968C933B
:10267000F80182AD8823F9F0815082AF8823D9F424
:1026800000D000D00F92EDB7FEB7319684E0ADB721
:10269000BEB711968C938FE493E092838183D80127
:1026A00011968C91838314820E94070C0F900F90D7
:1026B0000F900F900F90C8010E942512F80183A57A
:1026C0008F5F83A78150853008F492C013A691A52F
:1026D000913009F443C0913038F0923009F468C069
:1026E000933009F085C03FC0D801DB968D919C9155
:1026F000DC97892BF9F09A961C92C80164E60E9437
:102700004C12F801828161E00E94450F00D00F92C7
:1027100084E0ADB7BEB711968C9311978FE393E029
:1027200013969C938E9312970E94070C0F900F9014
:102730000F908DC0F80112A6C80160E00E944C12F3
:10274000D80112968C910E94790F882309F47FC0DA
:10275000F801828160E00E94450F79C0C801D8016C
:102760009A966C9119C0F80183A98F3FC1F0C801F6
:102770000E94F2128F3F71F0992787FD9095FC011E
:10278000EE0FFF1FE80FF91FE00FF11F6681778141
:10279000D80118C0C80160E00E944C1229C000D0C6
:1027A0000F9282E0EDB7FEB781838DE193E019C00F
:1027B000D801D3968C91D3978F3F61F0D8966D91C5
:1027C0007C91D997D4964D915C91D597C8010E9480
:1027D0006C120EC000D00F92EDB7FEB791838BEF55
:1027E00092E0938382830E94070C0F900F900F90CA
:1027F000D801D2968C91D2978150D2968C93D29751
:102800008F5F29F58CE3D2968C93C8010E94BE118C
:10281000F82EF801858D80FDFF0C0E94E4049A8358
:10282000898384E290E09C838B8381E08D8385E0C3
:102830008F838DE38887D80111968C918987FA86DA
:1028400084E08E83CE01019663E00E9492042E966E
:10285000E5E00C94DE2CEF92FF921F93CF93DF9371
:10286000EC0125963DE1E32EF12CE80EF91E1881CE
:10287000812F0E949B2A882311F0812F05C0239667
:10288000CE15DF05A1F78FEFDF91CF911F91FF905C
:10289000EF900895AEE0B0E0E0E5F4E10C94C02CD8
:1028A0008C017B010E94E4049A838983D7018D9176
:1028B0009C9111979C838B8321E02D8345E04F836E
:1028C00017968C91863309F444C0873378F48233A9
:1028D00009F482C0833330F48232D9F0883209F0AF
:1028E000BFC17DC1843309F0BBC129C08B3309F45A
:1028F000F1C08C3338F4883309F440C08A3309F0CE
:10290000AFC15FC0823409F4FAC0843409F0A8C1B1
:102910001BC1F7019085D80114968C9114979817D4
:1029200009F09EC1918580E0228530E0822B932BB7
:10293000D5969C938E93D497D3961C9291C1F8010F
:102940009181D70118968C91981709F089C111A629
:1029500087C1F8019181D70118968C911897981723
:1029600009F07EC121A719968C91199782A71A9612
:102970009C911A9780E01B962C911DC0F8019181C3
:10298000D70118968C911897981709F069C182E0C1
:1029900081A719969C91199780E01A962C911A9705
:1029A00030E0822B932B91AF80AF1B969C911B97AD
:1029B00080E01C962C9130E0822B932B97AB86AB5A
:1029C0004FC1F8019181D70118968C91981709F0A1
:1029D00047C183E081A744C1F8019181D7011896CE
:1029E0008C91981709F03CC181A5813069F0813044
:1029F00030F08230C9F0833009F032C12CC083E35B
:102A00008887998783E00BC085E388879987F801D9
:102A100082A58A8796A987A98B879C8786E08E8363
:102A2000CE01019660E0D8C087E388879987D801F6
:102A3000D8962D913C91D997832F992787FD9A9508
:102A40008A872B87D6969C91D697D7968C918C8720
:102A50009D8787E0E4CFC8010E94F2128F3FE1F02A
:102A6000992787FD9095FC01EE0FFF1FE80FF91FD6
:102A7000E00FF11F2681378189E38887F701808580
:102A80008987832F992787FD9A958A872B87C80185
:102A90000E942B148C87C2CF00D00F9282E0ADB77A
:102AA000BEB711968C93119787EE92E013969C9384
:102AB0008E9312970E94070C89E38887F70180851F
:102AC00089871A861B861C8686E08E830F900F905E
:102AD0000F90A6CFD70118966C91F80181816817E5
:102AE00009F0BEC08CE38887698724A935A9832FA4
:102AF000992787FD9A958A872B874E8391CFD70197
:102B000018969C911897F8018181981709F0A8C030
:102B100019966C91683008F0A3C083E48887998780
:102B20006A87359683E0689FC0011124E80FF91F7A
:102B300081819281892F990F990B8B8781818C8755
:102B400080818D8787E044C0D70118969C911897A3
:102B5000F8018181981709F083C01996DC90F7E09D
:102B6000FD1508F47DC0D80197968D919C9198979A
:102B7000009709F475C00E94142F8D3009F070C0C1
:102B8000F701928580E0638570E0682B792B8D2DAD
:102B900090E0FC01EE0FFF1FE80FF91FE00FF11F9F
:102BA0007783668323E0D29E90011124295F3F4FF3
:102BB000D80197968D919C919897820F931F0E94B0
:102BC0002A2F85E48887F80181818987DA8684E065
:102BD0008E83CE01019663E00E94920441C0A80159
:102BE000415E5F4FD70118966C9120E030E0FA010A
:102BF000E20FF31F8081861771F5F80182AD8823FB
:102C000029F58DB79EB707970FB6F8949EBF0FBEF4
:102C10008DBFEDB7FEB7319684E0ADB7BEB7119664
:102C20008C9381EC92E092838183D80111968C91F0
:102C300083831482658316820E94070CEDB7FEB76A
:102C400037960FB6F894FEBF0FBEEDBF8CE3D801E8
:102C5000DA968C9305C02F5F3F4F2830310539F647
:102C60002E96E7E00C94DC2CAEE0B0E0EAE3F6E16F
:102C70000C94C12C7C01DC0115968D919C911697CA
:102C8000009709F478C0019716969C938E93159738
:102C9000099708F09AC011962C91822F90E0FC01C0
:102CA0003897E830F105B0F4E556FF4F0C94EC2C62
:102CB00080E401C081E480937C0024C082E4FBCFE7
:102CC00083E4F9CF84E4F7CF85E4F5CF86E4F3CF4E
:102CD00087E4F1CF00D000D00F92EDB7FEB7319668
:102CE00082E0ADB7BEB711968C938CEA93E09283E5
:102CF0008183238314820E94070C0F900F900F9002
:102D00000F900F9080917A00806880937A00809174
:102D10007A00806480937A0080917A0084FFFCCFEF
:102D2000809178009091790020E030E040E080913F
:102D30007A00806480937A0080917A0084FFFCCFCF
:102D40008091780090917900280F391F4F5F4430AF
:102D500071F780917A008F7780937A003595279567
:102D6000359527956FEF73E0621B730BC7010796CC
:102D70000E9489112AC0C70107960E949A118C01EE
:102D80000E94E4049A83898383E290E09C838B838E
:102D900081E08D8395E09F8387E48887F7018281B6
:102DA00089871A870B879E83CE01019663E00E9474
:102DB0009204D70114968C9114972CE3829FC00142
:102DC000112416969C938E9315972E96E6E00C94FC
:102DD000DD2CFC0186E080937A0084812CE3829FC5
:102DE000C001112496838583CF0107966FEF71E0B0
:102DF0000E947A110895FC01918597FF05C0892FE3
:102E000090E08F77907004C08CE3989FC0011124EC
:102E1000968785870895AEE0B0E0E1E1F7E10C9494
:102E2000B82C7C018C01065F1F4F33E2832E912C5E
:102E30005524539425E0622E93E0792E5E01089488
:102E4000A11CB11C8CE0C82ED12CCE0CDF1CF801CB
:102E500080818F3FC1F00E94E4049A8389839C8221
:102E60008B825D826F82F7018485882311F48BE069
:102E700001C08AE08887F801808189877E82C50148
:102E800060E00E9492040F5F1F4F0C151D05F9F6BC
:102E90002E96EFE00C94D42CCF93DF93EC01898530
:102EA000882369F08D859E85009749F001979E875C
:102EB0008D87892B21F41C86CE010E940B178889EF
:102EC000882311F08F5F888B8889833010F0188AEF
:102ED0001F86DF91CF910895AEE0B0E0E2E7F7E121
:102EE0000C94BB2C8C016B01DB0117969C919B30E1
:102EF00009F42AC19C3030F4913059F09A3009F02D
:102F00008EC1F2C09E3009F43DC1903109F087C1F5
:102F10006DC1F8018089882309F4908BD8011F9630
:102F20008C911F978F5F1F968C9358010894A11C5A
:102F3000B11CEE24FF2488248394FCE39F2EF5012A
:102F4000EE0DFF1DD60118969C918081981709F00F
:102F50006BC0F8018785833088F08089882371F001
:102F6000833060F4108A178682E0848780E498E3D7
:102F700096878587C8010E940B1751C1D801199601
:102F80008C9119971C969C918823D9F19130C1F0AE
:102F9000913020F0923009F047C024C087FF07C06D
:102FA00090E08F779070F8019687858731C0899D72
:102FB000C0011124D8011E969C938E931D9728C0A2
:102FC00087FF09C090E08F779070D8011E969C9380
:102FD0008E931D9729C0899DC0011124F801968701
:102FE000858722C0D8011C961C921C9750961C9273
:102FF00050971F961C921F971E961C921E921D970B
:1030000010C0913041F0913018F0923051F407C067
:10301000F801848606C0D8011C961C9202C0F801F3
:103020001486C8010E940B170894E11CF11CF4E0FF
:10303000EF16F10409F083CFE5E0EE2EF12CE00E5F
:10304000F11ED60118969C91F8018581981731F4EC
:10305000148616861586C8010E940B17D60118968D
:103060009C91F7018181981759F4D8011C961C9204
:103070001C971E961C921E921D97C8010E940B174A
:1030800077E0A72EB12CA00EB11EEE24FF248824D9
:1030900083946CE3962EF501EE0DFF1DD601189674
:1030A0009C9180819817C1F4F801848681858823DA
:1030B00081F087FF06C090E08F77907096878587B4
:1030C00008C0899DC0011124D8011E969C938E933F
:1030D0001D97C8010E940B170894E11CF11CB2E077
:1030E000EB16F104C1F69BC0A801465F5F4F20E0DC
:1030F00030E071E06CE3FA01E20FF31FE081EF3F93
:10310000E9F0D60118968C91E817C1F4F80184858E
:103110008230A0F474878185882381F087FF06C000
:1031200090E08F7790709687858708C0869FC00152
:103130001124D8011E969C938E931D972F5F3F4FAD
:1031400022303105C1F66BC0F8013A96D8011A96C3
:103150009C919F3F29F0DB0118968C91981749F0BC
:1031600091819F3F09F45BC0F6018085981709F0B3
:1031700056C0D8011C961C921C971E961C921E923B
:103180001D974DC05AE0E52EF12CE00EF11EFB011B
:103190009085D8011A968C911A97891749F04BE0BF
:1031A000E42EF12CE00EF11E1B968C918917B9F5D7
:1031B0000E94E4049A838983F601808191819C8333
:1031C0008B8381E08D8325E02F838FE08887D70173
:1031D0008C918987F801958586858A879B872E83C0
:1031E000CE01019660E00E94920419C0F8013A965F
:1031F000DB0118969C91D8011A968C91891719F0C9
:103200008181891761F4F601918580E0228530E0A3
:10321000822B932BD8011E969C938E931D972E96EE
:10322000ECE00C94D72CAEE0B0E0E9E1F9E10C94CD
:10323000C22C082FF62E172F0E94E4049A8389834C
:1032400088E290E09C838B8381E08D8385E18F838E
:1032500008871987FA8684E08E83CE0101960E9442
:10326000E00481E090E00E9443092E96E5E00C9492
:10327000DE2CAEE0B0E0EFE3F9E10C94C32C182FA4
:10328000062F0E94E4049A83898388E290E09C835D
:103290008B8381E08D8385E18F831887098783E0A5
:1032A0008E83CE0101960E94E00481E090E00E94AE
:1032B00043092E96E4E00C94DF2C0E94910F0E94AB
:1032C000060580E899E16FEF7FEF41E025E00E947D
:1032D00059048DE699E264E270E041E026E00E9444
:1032E00059040E94AE0F82E898E20E940D0486EA1B
:1032F00098E20E9433040E94FC0380E090E008956D
:10330000AEE0B0E0E6E8F9E10C94C12C7C01FC01F0
:103310008681853009F0ABC0028113810E94E404EC
:103320000817190739F0F701828193818397029773
:1033300008F09DC010E0E12FF0E0EE0FFF1FEF5905
:10334000F74F208131812115310509F457C0F9016A
:10335000808190E00B978331910508F04FC08D5527
:103360009F4FFC010C94EC2CC901B7010E94841DF5
:1033700045C0C901B7010E94282040C0C901B7015A
:103380000E940B113BC0C901B7010E944A1436C00C
:10339000C901B7010E946C1731C0C901B7010E9471
:1033A000531A2CC0C901B7010E94D61E27C0C901FB
:1033B000B7010E946E1F22C0C901B7010E94D82127
:1033C0001DC0C901B7010E94152518C0C901B70168
:1033D0000E949F2B13C0C901B7010E94B5260EC0E1
:1033E000C901B7010E94AE2709C0C901B7010E94F7
:1033F000FB2904C0C901B7010E94BE2A1F5F103813
:1034000009F099CFF7018781843629F0853631F0AC
:103410008E3169F51FC00E94AE0F29C00E94E404DE
:103420009A838983F701808191819C838B8381E0DA
:103430008D8385E08F8386E6888790915F028091F7
:10344000600289879A8784E08E83CE0101960E946C
:10345000E0040DC00E94FF1A182FF70180850E941A
:10346000FA1AC7010E94141C812F0E94FA1A2E9684
:10347000E6E00C94DD2CCF93DF93EC01FC01349655
:1034800060E080818F3F21F06F5F31966A30C9F72D
:103490008FEF93E070E00E94652C798B688B1F861C
:1034A000DF91CF910895DC01FB0187818634F9F427
:1034B000908511968C9111979817C9F4918580E0A9
:1034C0002285BC01620F711D50964D915C91519700
:1034D00020E080E090E08617970720F021501F96AB
:1034E0002C9308952F5F840F951F2A30A1F708951C
:1034F000AEE0B0E0EEE7FAE10C94C22C8C01DC0106
:1035000012968C910E944227F82E0E94E4049A831E
:10351000898383E290E09C838B8381E08D8385E0C7
:103520008F83F80127852A3020F4E20FF11D848172
:1035300019C000D000D00F92EDB7FEB7319682E0EF
:10354000ADB7BEB711968C9383EE93E092838183DF
:10355000238314820E94070C8FEF0F900F900F901F
:103560000F900F90898784E08E83F8018685FF2075
:1035700029F48F3FB9F08F5F868714C0843080F0C4
:10358000D80113968C911397867051F482E0888746
:1035900012968C918A87CE01019660E00E94920477
:1035A000F8011686D80113968C91982F80FD02C0E1
:1035B00023E001C024E6F80186858217B9F492FF62
:1035C00004C084E1888788EC0BC091FF04C084E1CB
:1035D000888789EC05C081E08887D80112968C9194
:1035E0008A87CE01019660E00E9492042E96E5E063
:1035F0000C94DE2C9FE0981B909397010895909176
:1036000097018FE0891B08951F93CF93DF93182FA5
:10361000F89421B1C1E0D0E0CE010090970102C042
:10362000880F991F0A94E2F7282B21B980E090E0D7
:103630000E944E09112369F091B10090970102C0D8
:10364000CC0FDD1F0A94E2F79E012095822F89237B
:1036500081B98CE090E00E944E0980B190E000902A
:10366000970102C0959587950A94E2F780FF10E0D4
:1036700087E390E00E944E0921B181E090E0009044
:10368000970102C0880F991F0A94E2F78095822360
:1036900081B97894812FDF91CF911F9108950F9375
:1036A0001F93182F08E0812F81700E94041B16952C
:1036B000811110680150B9F7812F1F910F91089562
:1036C0008FEF0E944F1B08950F931F9332B181E03B
:1036D00090E00090970102C0880F991F0A94E2F7CA
:1036E000282F2095232322B921B1822B81B98AEB7F
:1036F00091E00E944E09F89421B181E090E00090A1
:10370000970102C0880F991F0A94E2F780958223DF
:1037100081B98CE390E00E944E0900B110919701AD
:1037200078948AEB91E00E944E0980B190E000907D
:10373000970102C0959587950A94E2F780FD02C033
:1037400081E008C081E090E002C0880F991F1A95BF
:10375000E2F780231F910F9108950F931F93CF934A
:10376000DF93082FEB010E94641B209751F085E541
:103770000E944F1B18E089910E944F1B1150D9F7EE
:1037800003C08CEC0E944F1B802F0E944F1BDF91C7
:10379000CF911F910F910895A0E0B0E0E2EDFBE121
:1037A0000C94C02CE82EEB010E94641B8823A1F529
:1037B00080EF0E944F1B80E4FF24182F98EFD92E32
:1037C000D80E81E00E94041B082F81E00E94041B98
:1037D000882329F0002371F08EEFF82E1FC00023FC
:1037E00049F41E1528F0888180FF04C0E11611F00D
:1037F000F12E01E0802F0E94041B8881869588832A
:10380000002311F08068888311501D15D1F6112313
:1038100029F02196812FD1CFFF24FA948F2DCDB797
:10382000DEB7E7E00C94DC2CA6E1B0E0EAE1FCE1D5
:103830000C94BD2C8C010E94E4049A878987F801BE
:10384000808191819C878B8781E08D8785E08F8740
:103850000FEF6E010894C11CD11C49E0E42EF12C3D
:10386000EC0EFD1E3FE1A32E16E020E2B22EA8953D
:10387000802FB6010E94CC1B082F8F3F41F481E2BC
:10388000888B83E0898B8E87CE01099609C08E3F95
:1038900059F481E2888B84E0898B83E08E87C701AD
:1038A00060E00E94920426C0A88A8981898B8A815F
:1038B0008A8B8B818B8B8C818C8B1E87C70160E000
:1038C0000E94920482E00E94D703A895B88A8D8155
:1038D000898B8E818A8B8F818B8B88858C8B1E87C1
:1038E000C70160E00E94920482E00E94D703002397
:1038F00009F0BDCF6696EAE00C94D92C80917A004D
:10390000806880937A0080917A00806480937A0046
:1039100080917A0084FFFCCF8091780090917900AB
:1039200040E020E030E080917A00806480937A006B
:1039300080917A0084FFFCCF80917800909179008B
:10394000280F391F4F5F443071F780917A008F77CD
:1039500080937A003595279535952795C901089567
:10396000282F90E0FC013897E830F105B0F4EA54D4
:10397000FF4F0C94EC2C80E40DC081E40BC082E47A
:1039800009C083E407C084E405C085E403C086E47D
:1039900001C087E480937C00089500D000D00F928E
:1039A000EDB7FEB7319682E0ADB7BEB711968C93F6
:1039B00084EF93E092838183238314820E94070C17
:1039C0000F900F900F900F900F900895AEE0B0E021
:1039D000ECEEFCE10C94C12C8C01FC0181810E9475
:1039E000B01C0E947E1C7C01F80146814423A1F09A
:1039F00024813581C9014E968E159F052CF02E51DC
:103A00003040E216F30624F44150F801468322C008
:103A100084E0F80186831EC0F8019583848384E0E6
:103A200086830E94E4049A83898383E290E09C83E6
:103A30008B8381E08D8395E09F8386E48887F801FE
:103A400082818987FA86EB869E83CE01019663E0A8
:103A50000E9492042E96E6E00C94DD2C0F931F93A7
:103A60008C01FC0181810E94B01C86E080937A0069
:103A70000E947E1CF8019583848316821F910F910A
:103A80000895FC018FEF9FEF9287818713868381D2
:103A90008F3F11F481E084870895AEE0B0E0E3E564
:103AA000FDE10C94C22C8C01F62EFC018485882348
:103AB00081F0FAE06F1769F4F80121853285FFEF94
:103AC0002F3F3F0731F0F8018681978182179307D6
:103AD000B8F00E94E4049A83898383E290E09C8397
:103AE0008B8381E08D8385E08F83F886F801818167
:103AF000898783E08E83CE01019660E00E94920464
:103B00002E96E5E00C94DE2CFC01DB0117968C91DF
:103B10001797873421F18834A0F58A3019F08B305B
:103B200081F50EC018966C918381681719F481E0B5
:103B3000848708958281681721F5CF016AE00CC05F
:103B400018966C918381681711F414860895828108
:103B50006817B9F4CF016BE00E944D1D089595815F
:103B60009F3F79F018968C911897891751F4199600
:103B70009C91199780E01A962C91820F911D928743
:103B800081870895FC01968197FF05C0892F90E0F9
:103B90008F77907004C08CE3989FC00111249087A8
:103BA00087830895FC01108617820895FC016F3FFA
:103BB000A1F0828182FF02C093E001C094E09F01E6
:103BC0002D5F3F4FF9018081861711F481E0089540
:103BD00031968E2F821B8917B0F380E00895FC0187
:103BE000828180FF02C08185089581810E94790FC2
:103BF0000895AEE0B0E0EFEFFDE10C94C22C8C0133
:103C00000E94E4049A83898384E290E09C838B83FE
:103C1000FF24F394FD8285E08F8381E18887F8019A
:103C200083818987C8010E94EF1D1A868111FA8657
:103C300084E08E83CE01019663E00E9492042E966A
:103C4000E5E00C94DE2CFC0181810E94450F089573
:103C50000F931F938C01FC01818160E00E94450F4E
:103C6000C8010E94F91D1F910F910895CF93DF9312
:103C7000EC018A8180FF10C0898161E00E94450FBC
:103C800088E00E94D703898160E00E94450F898502
:103C900091E08927898704C0898161E00E94450FEE
:103CA000CE010E94F91DDF91CF910895CF93DF934C
:103CB000EC018F8198850097B1F1019779F58A81A0
:103CC00090E084FF15C0CE010E94361E8A818F7E4F
:103CD0008A839E8197FF05C0892F90E08F7790702F
:103CE00004C08CE3989FC001112498878F8316C06D
:103CF00085FF07C0CE010E94281E8A818F7D8A839E
:103D00000DC081FF04C0CE010E94361E07C08C701A
:103D10009070892B19F0CE010E94281E8F81988502
:103D2000019798878F83DF91CF910895CF93DF9389
:103D3000EC01613069F48A8182FF04C0CE010E94E7
:103D4000361E0BC081FD09C0CE010E94361E17C071
:103D50006623B9F48A8183FF0FC09E8197FF05C057
:103D6000892F90E08F77907004C08CE3989FC001FA
:103D7000112498878F8305C0CE010E94281E1886C3
:103D80001F82DF91CF910895CF93DF93EC0189815A
:103D90000E94790F882319F0CE0160E002C0CE01A5
:103DA00061E00E94961EDF91CF910895AEE0B0E0F1
:103DB000ECEDFEE10C94BF2C7C018B010E94E4042D
:103DC0009A838983F801808191819C838B83CC24A1
:103DD000C394CD8285E0D82EDF82C70160850E9422
:103DE000D61D882309F465C0F80187818B30C1F0A6
:103DF0008C3030F4813069F08A3009F05AC00DC03F
:103E0000883409F1893409F440C08C3009F051C07C
:103E10000CC0C7010E94C41E4CC0C70161E002C0B3
:103E2000C70160E00E94961E44C08DE08887F801BB
:103E300080858987C7010E94EF1D1A868111CA8675
:103E400084E08E8331C0F7019381F8018085981753
:103E500081F581E090E0018402C0880F991F0A94E7
:103E6000E2F7F7014281482B4283F801928580E016
:103E7000238530E0822B932BF7019087878345FFC2
:103E800018C0C7010E94361E14C0F7019381F801C3
:103E90008085981771F48AE488879987F70180856F
:103EA0008A8787818B87DE82CE01019660E00E943F
:103EB00092042E96E8E00C94DB2CCF93DF93EC0178
:103EC0008A8187708D8389810E9442271E82882380
:103ED00011F081E08E83DF91CF910895AEE0B0E0E4
:103EE000E4E7FFE10C94C12C7C018B010E94E40407
:103EF0009A838983F801808191819C838B8385E0FB
:103F00008F83F7019281F80180859817B1F487813A
:103F1000893299F48AE288879987F701818111E0D3
:103F20001D830E9442271A8681111A8784E08E839E
:103F3000CE01019660E00E9492042E96E6E00C9479
:103F4000DD2CEF92FF921F93DF93CF93CDB7DEB7B7
:103F50002E970FB6F894DEBF0FBECDBF7C01FC01DB
:103F600081810E94422720E030E0882311F021E087
:103F700030E0F701868190E02817390739F1818117
:103F80000E944227F7011682882311F081E0868380
:103F90000E94E4049A83898384E290E09C838B836B
:103FA00011E01D8385E08F838BE28887F701828192
:103FB000898781810E9442271A8681111A8784E0AD
:103FC0008E83CE01019660E00E949204F701838106
:103FD000882339F181810E944227882311F1F7015A
:103FE00085818823C9F415E015830E94E4049A832F
:103FF000898384E290E09C838B8381E08D831F839F
:1040000088E28887F7018281898783E08E83CE01E9
:10401000019663E00E949204F701858181508583B7
:1040200002C0F70115822E960FB6F894DEBF0FBEC0
:10403000CDBFCF91DF911F91FF90EF900895FC01CC
:104040008FEF9FEF94878387158681E08687089599
:10405000DC01FB0187818734D1F0883448F58A3050
:1040600019F08B3029F50AC0908513968C9113971F
:104070009817F1F481E01E968C930895908513961D
:104080008C9113979817A1F41E961C920895179679
:104090009C9117979F3F61F08085891749F491851E
:1040A00080E02285820F911D1C969C938E931B9716
:1040B0000895EF92FF921F93DF93CF93CDB7DEB7B2
:1040C0002E970FB6F894DEBF0FBECDBF7C01FC016A
:1040D00085858823D9F40E94E4049A83898383E246
:1040E00090E09C838B8311E01D8385E08F83F70133
:1040F0008181898784E1888782818A8784E08E83B1
:10410000CE0101960E94E004F70115872E960FB6A6
:10411000F894DEBF0FBECDBFCF91DF911F91FF900E
:10412000EF9008950F931F93CF93DF93EC018E854B
:10413000882341F18E010B5F1F4F8D810E949B2AC6
:10414000882331F4F80181810E949B2A8823C9F0D9
:104150008F818F3F91F02B853C85FFEF2F3F3F07ED
:1041600089F08A8548855985882321F042175307AD
:1041700048F403C02417350728F4CE010E945920C3
:1041800001C01D86DF91CF911F910F910895FC0111
:1041900016861786108A118A86819781A0E0B0E082
:1041A000828B938BA48BB58B8FEF9FEFAFEFBFEF1D
:1041B000868B978BA08FB18F138E128E168E91E007
:1041C000958F86E0878F948F8FEF80A30895FC01F1
:1041D00082899389A489B589B7FF04C0128A138A9A
:1041E000148A158A868197819C0140E050E082897B
:1041F0009389A489B589281739074A075B0724F4EE
:10420000228B338B448B558B0895FC018381861759
:10421000A1F0DF011A968285861779F011968C91AC
:104220001197861751F012968C911297861729F0E4
:1042300090E013968C91861709F491E0892F0895E8
:10424000FC016681778180E090E022E030E040E090
:1042500050E00E949A2C50954095309521953F4F03
:104260004F4F5F4FB901CA010895FC012681378184
:1042700040E050E0CA01B901E4E0660F771F881FF3
:10428000991FEA95D1F7621B730B840B950B2AE0FB
:1042900030E040E050E00E949A2CCA01B901089534
:1042A000CF93DF93EC01662319F40E94202104C010
:1042B000643639F40E9435216E8B7F8B888F998FFD
:1042C00013C070E080E090E02E813F8140E050E03C
:1042D0000E94262C24E630E040E050E00E949A2C18
:1042E0002E8B3F8B488F598FDF91CF910895FC0122
:1042F000858D08950F931F938C01FC01628973894A
:104300008489958924E630E040E050E00E94262C24
:10431000F8012681378140E050E00E949A2C2F5FFF
:104320003F4F4F4F5F4F57FF05C020E030E040E068
:1043300050E009C0253631054105510524F024E639
:1043400030E040E050E0822F1F910F910895EF92EE
:10435000FF920F931F93CF93DF93EC0170E06F5F99
:104360007F4F882777FD8095982F2E813F81790197
:1043700000E010E0A80197010E94262C24E630E01E
:1043800040E050E00E949A2CC901DA018A8B9B8B95
:10439000AC8BBD8BE816F9060A071B0724F4EA8AE2
:1043A000FB8A0C8B1D8BCDB7DEB7E6E00C94DD2CC1
:1043B000AEE0B0E0EEEDF1E20C94C12C8C017B019B
:1043C0000E94E4049A838983F701808191819C8310
:1043D0008B8381E08D8385E08F832781243109F4ED
:1043E00044C0253130F4213059F0223009F0B9C0F1
:1043F00031C0253109F49EC0273109F0B2C08DC00B
:10440000F8019381F7018085981709F0AAC0F80197
:10441000858D833089F0873079F08130C9F4F801D7
:10442000848D882319F0813099F402C083E001C0A3
:1044300082E0F801868F02C0F801268F8FEF9FEF90
:10444000AFEFBFEF868B978BA08FB18F138E128E3D
:1044500087E008C0F8019381F7018085981709F07B
:1044600080C08FEFF80180A37CC0C801F701608590
:104470000E940521882359F4F8019381F701808572
:10448000981709F06EC08185883C08F46AC0F8016D
:10449000858D833091F1873081F1813009F061C0E1
:1044A000F701F184F8ECFF1611F4FF2405C089EC44
:1044B000F81611F4F4E6FF2EC8010E947A218F1538
:1044C00030F4C8016F2D0E94502182E00DC0282FCA
:1044D00030E08F2D90E001968217930744F4C801D5
:1044E0006F2D0E94502183E0F801868F3AC08FEF34
:1044F0009FEFAFEFBFEFF8010BC0F7018185883C5C
:1045000080F181E0F801868F8FEF9FEFAFEFBFEF73
:10451000868B978BA08FB18F24C0C801F70160856F
:104520000E9405218823E9F0C801F70161850E94F6
:10453000A72117C0C801F70160850E9405218823C3
:1045400081F086E18887F70180858987C8010E940C
:104550007A218A8784E08E83CE01019660E00E94F2
:1045600092042E96E6E00C94DD2CAEE0B0E0EBEB8E
:10457000F2E20C94C32C8C010E94E4049A83898398
:1045800084E290E09C838B8381E08D8385E08F8340
:1045900088E18887F80182858987C8010E947A218D
:1045A0008A87F801928D838D8B879C8786E08E8326
:1045B000CE01019660E00E9492042E96E4E00C94F5
:1045C000DF2CEF92FF920F931F93CF93DF93EC01B9
:1045D0008F8D882311F081508F8F8D8D90E0FC019D
:1045E0003197EC30F10508F0CEC0E254FF4F0C9447
:1045F000EC2C1E8D123041F41E8E898161E00E94E8
:10460000450F83E08F8F1D8F8E8D833049F41E8E72
:104610008A8161E00E94450F82E08F8F85E08D8F57
:104620008E8D843009F0AFC01E8E8C8D813011F4D8
:1046300082E08E8F8C8D882309F0A5C083E08E8F59
:10464000A2C08F8D882309F09EC083E08D8F1C8EC1
:104650009AC08E8D813049F41E8E898160E00E945F
:10466000450F83E08F8F84E08D8F8E8D843009F02D
:104670008AC01E8E898160E00E94450F86E08F8F80
:104680008AE080C08F8D882309F07DC0898161E038
:104690000E94450F83E08F8F86E074C08F8D882342
:1046A00009F071C087E08D8F81E08C8F6CC08E8D9A
:1046B000813049F41E8E898160E00E94450F86E0BA
:1046C0008F8F88E08D8F8E8D843009F05CC01E8EB8
:1046D000898160E00E94450F86E08F8F8BE052C099
:1046E0008F8D882309F04FC08A8160E00E94450FBA
:1046F00083E08F8F89E046C08F8D882309F043C007
:1047000081E08D8FCE010E94B5228A899B89AC8978
:10471000BD89B7FF04C01A8A1B8A1C8A1D8A8E8134
:104720009F819C0140E050E08A899B89AC89BD89CA
:10473000281739074A075B0734F52A8B3B8B4C8BCC
:104740005D8B21C08F8D8823F1F48A8161E00E9406
:10475000450F83E08F8F85E015C08F8D882399F4F6
:104760008A8160E00E94450F83E08F8F8CE00AC051
:104770008F8D882341F4898161E00E94450F83E099
:104780008F8F82E08D8F8D8D8250823008F05DC0DA
:104790008E859F85A889B9890196A11DB11D8E8737
:1047A0009F87A88BB98B8A899B89AC89BD89019623
:1047B000A11DB11D8A8B9B8BAC8BBD8B2E893F8934
:1047C000488D598D2F3F6FEF36076FEF46076FEF1C
:1047D000560779F082179307A407B50754F08FEFB7
:1047E0009FEFAFEFBFEF8E8B9F8BA88FB98F81E0CC
:1047F0008E8F88859985A0E0B0E02E853F85488919
:104800005989EA88FB880C891D89281739074A07C6
:104810005B0750F48E819F81A0E0B0E0E816F906B6
:104820000A071B0794F06EC0CE010E9435216E1559
:104830007F05800791074CF48E819F81A0E0B0E056
:104840008A8B9B8BAC8BBD8B59C08D8D85508330F3
:1048500008F05AC08E859F85A889B9890196A11D47
:10486000B11D8E879F87A88BB98B8A899B89AC895C
:10487000BD890197A109B1098A8B9B8BAC8BBD8B3C
:104880002E893F89488D598D2F3F6FEF36076FEF87
:1048900046076FEF560779F0281739074A075B0775
:1048A00054F08FEF9FEFAFEFBFEF8E8B9F8BA88FF2
:1048B000B98F81E08E8F88859985A0E0B0E02E8544
:1048C0003F8548895989EA88FB880C891D89281702
:1048D00039074A075B0730F41E141F04100611063F
:1048E0009CF010C0CE010E942021E616F7060807B2
:1048F000190754F41A8A1B8A1C8A1D8A1E861F8671
:10490000188A198A81E008C088A1181634F48150E9
:1049100088A3882311F484E08E8FCDB7DEB7E6E05C
:104920000C94DD2C0E94E1220895FC018FEF84831A
:1049300086830895CF92DF92EF92FF921F93DF93C9
:10494000CF93CDB7DEB72E970FB6F894DEBF0FBE6C
:10495000CDBF7C01FC0184818F3FA1F18150848314
:10496000882381F58FEF84830E94E4049A838983EE
:1049700083E290E09C838B8381E08D8385E08F834D
:1049800085E18887F7018381898713E01E836E01A3
:104990000894C11CD11CC60160E00E94920489E207
:1049A0008887F701818189871E83C60163E00E94A1
:1049B0009204F70182818F3F29F08987C60163E065
:1049C0000E9492042E960FB6F894DEBF0FBECDBFA4
:1049D000CF91DF911F91FF90EF90DF90CF900895DE
:1049E000AEE0B0E0E6EFF4E20C94C22C8C01F62EBF
:1049F0000E94E4049A83898383E290E09C838B8302
:104A000081E08D8385E08F8384E18887F80183814D
:104A10008987FA8684E08E83CE01019663E00E9446
:104A200092042E96E5E00C94DE2C0F931F93CF9307
:104A3000DF93EC018B010E94E404F80187818A3244
:104A4000D1F08B3221F0863109F04DC00CC0F80155
:104A500060858981861721F08A81861709F043C015
:104A600084E18C8340C09B81F80180859817D9F53B
:104A700081858D8338C0F80190858981891719F067
:104A80008A81891781F58A818F3F91F4F8018185A8
:104A90009D81882329F09C3030F5CE0161E105C06D
:104AA0009F50953000F5CE0160E00E94F0241BC0BD
:104AB0008E81F80161858F3F11F46E8314C06623E7
:104AC00011F4882331F08D818C3058F4CE0161E1EE
:104AD00006C08D818F50853020F4CE0160E00E94A9
:104AE000F0248FEF8E83DF91CF911F910F91089566
:104AF000AEE0B0E0EEE7F5E20C94C22C8C01F62EAD
:104B0000662321F081E0F801858302C0FC01158253
:104B1000F801828180FF05C080E0FF2009F481E078
:104B2000F82E0E94E4049C0183E290E09C838B8336
:104B300085E08F83FF2011F08AE001C08BE0888739
:104B4000F8018381898783E08E8381E08D833A83B6
:104B50002983CE01019660E00E9492042E96E5E042
:104B60000C94DE2CCF93DF93EC0189810E944227C5
:104B700060E0882309F461E08D81662319F08823C1
:104B800019F007C0813029F48C818F3F11F08F5FBD
:104B90008C838C81833021F4CE010E9478251C8285
:104BA000DF91CF910895CF93DF93EC0189810E942B
:104BB0004227882319F4CE0161E002C0CE0160E0F3
:104BC0000E947825DF91CF91089587B18D6187B9D3
:104BD000409842984398419844980895409A409844
:104BE0000895449A44980895449A449890E003C0E4
:104BF000409A40989F5F9817D8F386B190E09695B9
:104C0000879581700895E0E020E030E0482F50E083
:104C1000C90107968417950714F1F0E0CA01821BB9
:104C2000930B9C01662369F0E856FE4F81E090E00B
:104C300002C0880F991F2A95E2F72081282B208334
:104C40000895E856FE4F81E090E002C0880F991F5A
:104C50002A95E2F780952081822380830895EF5F73
:104C6000285F3F4FE430A1F60895E0E020E030E017
:104C7000482F50E0C9010796841795077CF0421B26
:104C8000530B81E090E002C0880F991F4A95E2F72C
:104C9000F0E0E856FE4FE081E82306C0EF5F285FB2
:104CA0003F4FE43039F7E0E08E2F0895429A85E0D7
:104CB00090E00E944E09429885E090E00E944E09E3
:104CC0000895409A85E090E00E944E09409885E062
:104CD00090E00E944E0908950F931F93082F18E04B
:104CE00007FF02C0439A01C0439885E090E00E940C
:104CF0004E090E946126115011F0000FF1CF1F9153
:104D00000F9108950F931F938C01FC0180810E94E5
:104D10006C26F80182918F010E946C26F801829125
:104D20008F010E946C2601501040F80180810E9482
:104D30006C260E9456261F910F9108958BE991E0F1
:104D40000E94822608956F3F71F0FC0134969C0109
:104D5000245F3F4F8081861711F481E008953196DA
:104D6000E217F307B9F780E008950F931F93CF93ED
:104D7000DF93EC018B010E94E404CE01F801608511
:104D80000E94A326882371F0F8016781613019F031
:104D9000623041F403C0898161E002C0898160E032
:104DA0000E94450FDF91CF911F910F910895EF92CF
:104DB000FF921F93DF93CF93CDB7DEB72E970FB639
:104DC000F894DEBF0FBECDBF7C01FC0181810E9443
:104DD0004227182F0E94E4049A83898383E290E09B
:104DE0009C838B8381E08D8385E08F83F7018381B2
:104DF000898784E08E838481112329F48F3FA1F079
:104E00008F5F848311C0843068F0F70182818670DF
:104E100049F482E0888781818A87CE01019660E02B
:104E20000E949204F7011482F7018281982F80FD7D
:104E300002C023E001C024E6F70184818217B1F4A7
:104E400092FF04C084E1888788EC0AC091FF04C007
:104E500084E1888789EC04C081E08887F70181813B
:104E60008A87CE01019660E00E9492042E960FB6CA
:104E7000F894DEBF0FBECDBFCF91DF911F91FF90A1
:104E8000EF900895482F843080F1883090F437B146
:104E900081E090E002C0880F991F4A95E2F7282F21
:104EA0002095232327B928B1282B28B996B1982318
:104EB0001DC0803198F491B14095477021E030E0F9
:104EC00001C0220F4A95EAF7822F8095892381B984
:104ED00082B1822B82B990B1922308C0843F28F41A
:104EE00080510E94F425982F01C090E0892F0895E9
:104EF000DC0130E040E050E09C91992369F111968B
:104F00002C911197222341F1892F8156863028F464
:104F10009755392F3295307F995A892F80538A308F
:104F200018F4382F3295307F822F8156863018F44E
:104F30002755322B295A822F80538A3008F4382B78
:104F4000FB01E40FF51F30834F5F5F4F129648302F
:104F5000510591F680E0089581E00895AEE0B0E05B
:104F6000E4EBF7E20C94C12C7C018B010E94E40479
:104F7000F8018781833229F5F8019085F701828154
:104F80009817F9F40E94E4049A838983F8018081D8
:104F900091819C838B8381E08D8345E04F8384E204
:104FA0008887F70182818987208D318D832F99270A
:104FB00087FD9A958A872B874E83CE0101960E94A2
:104FC000E0042E96E6E00C94DD2CA6E1B0E0EBEEDA
:104FD000F7E20C94BF2C7C010E94FF1AC82EF70147
:104FE00081810E94FA1AF701D688F2E0DF16E9F40F
:104FF000F70183818823C9F0C70105968E010F5FF1
:105000001F4FB8010E947827882341F000D00F92EB
:10501000EDB7FEB7D1828CE394E023C084E4B801FD
:105020000E94AD1B81E0F701878BF70186898823F9
:1050300009F051C08789882309F44DC0178AC70138
:1050400005968E010F5F1F4FB8010E9478278823B5
:1050500081F000D00F9282E0EDB7FEB781838EE140
:1050600094E0938382830E94070C0F900F900F901F
:1050700039C08EEBB8010E94AD1B0E94601B082F47
:105080000E94601B382F20E010E0202B312BF7010D
:10509000318F208F0E94E4049A87898784E290E010
:1050A0009C878B8781E08D8745E04F8782E2888BE4
:1050B000F7018281898B208D318D832F992787FD80
:1050C0009A958A8B2B8B4E87CE0109960E94E0041D
:1050D000F7018481868BF70186898150868B8C2D20
:1050E0000E94FA1A6696E8E00C94DB2CFC01178A01
:1050F0008281880F880F8C73868B118E108E0E9490
:10510000641B089580919C018F5F80939C0191E0C6
:1051100090939F0180919C018A3049F480919D0178
:105120008F5F80939D0110929C019093A0018091CC
:105130009D018A3051F480919E018F5F80939E0182
:1051400010929D0181E08093A10108951F93CF9358
:10515000DF9380919F018823E9F010929F0110E076
:10516000E12FF0E0EE0FFF1FEF59F74F0190F081B4
:10517000E02D309761F080818A3031F0873139F449
:10518000CF010E94781A03C0CF010E94D7261F5F6B
:10519000103831F78091A001882399F11092A00175
:1051A00010E0E12FF0E0EE0FFF1FEF59F74F0190F5
:1051B000F081E02D309711F18081873161F08831E5
:1051C00028F48C3081F08531C9F409C0883179F038
:1051D0008931A1F410C0CF010E94781A0FC0CF010D
:1051E0000E94E61C0BC0CF010E94922407C0CF0191
:1051F0000E949A2403C0CF010E94B2251F5F10387D
:1052000081F68091A101882309F461C01092A10167
:1052100010E0E12FF0E0EE0FFF1FEF59F74FC081D4
:10522000D181209791F1888190E00B978131910590
:1052300060F586539F4FFC010C94EC2CCE010E942C
:10524000F01023C0CE010E9434161FC0CE010E9470
:1052500008131BC0CE010E944C1717C0CE010E943C
:10526000A11F13C0CE010E9492200FC0CE010E9448
:10527000E5270BC0CE010E948F2907C0CE010E94F6
:10528000382A03C0CE010E94561E1F5F103809F64F
:105290000E94350F9C01F2E080309F07C0F400D0DF
:1052A00000D00F92EDB7FEB7319681E0ADB7BEB733
:1052B00011968C938AE594E09283818334832383CF
:1052C0000E94070C0F900F900F900F900F900E946C
:1052D0009E26DF91CF911F910895CF93DF93EC012C
:1052E0000E94E4048F818130B9F420E0E22FF0E0E5
:1052F000EE0FFF1FEF59F74F0190F081E02D30972F
:1053000041F08081803129F498858181981708F4D3
:1053100014822F5F203851F7DF91CF910895AEE0CE
:10532000B0E0E5E9F9E20C94BD2C5C01FC0184815C
:105330008F3F11F08F5F8483F501948182819817EC
:1053400008F449C0858193818F5F858381508917D7
:1053500009F041C015820E94E4049A83898394E293
:10536000C92ED12CDC82CB8211E01D8306E00F8395
:105370001887F501818189878091AB018A878091A7
:10538000AC018B878091AD018C878091AE018D87B8
:1053900087E08E837E010894E11CF11CC7010E9406
:1053A000E0040E94E4049A838983DC82CB821D831B
:1053B0000F8382E08887F501818189878091B00120
:1053C0008A878091B1018B878091B2018C870E838F
:1053D000C7010E94E0042E96EAE00C94D92CFC014F
:1053E0001386818190E08F709070019695878487F5
:1053F00081E086870895DC01FB0187818A3019F0FE
:105400008B3099F40AC0908512968C911297981758
:1054100061F481E01E968C930895908512968C918C
:105420001297981711F41E961C920895AEE0B0E002
:10543000ECE1FAE20C94C22C8C01F62E0E94E404FA
:105440009A83898383E290E09C838B8381E08D83C0
:1054500085E08F83F886F8018181898783E08E83D8
:10546000CE0101960E94E0042E96E5E00C94DE2C1D
:10547000EF92FF920F931F93CF93DF93EC018E85F2
:105480008823A1F19E012D5F3F4F8B858823B9F4BE
:105490008901FF248B85882359F4F80180810E94BB
:1054A0009B2A882329F081E08B87CE016AE020C007
:1054B000F3940F5F1F4FF8E0FF1661F71CC08901DE
:1054C000FF24EE248B85813041F4F80180810E9415
:1054D0009B2A882311F0EE24E394F3940F5F1F4F6F
:1054E000F8E0FF1679F7EE2031F41B86CE016BE071
:1054F0000E94162A17C08C859D85892B71F48DEA30
:1055000090E09D878C878B85882319F0CE016AE017
:1055100002C0CE016BE00E94162A8C859D85019702
:105520009D878C87CDB7DEB7E6E00C94DD2CFC01BF
:105530007087678308950F93282F90E0A895E92F2F
:10554000F0E0EE0FFF1FEF59F74F0190F081E02DD3
:10555000309771F08081823159F48181821741F452
:10556000838164814581268102810E94550904C09E
:105570009F5F903819F780E00F910895AEE0B0E09A
:10558000E4ECFAE20C94BF2C7C018B010E94E40451
:105590009A838983F801808191819C838B83DD24A8
:1055A000D394DD8285E08F8387818037E1F0823775
:1055B00009F469C08E3609F07CC0F8016085F701F6
:1055C0008181681709F075C08FE6888769878281B5
:1055D0008A8783818B8784818C8785818D8786816B
:1055E0008E8788E060C0F8019085F7018181981767
:1055F00009F05FC0C780D084C114D10409F459C038
:10560000C6010E94142F823109F053C0F801818530
:10561000F7018283C6010396F80161850E941C2F61
:10562000F8018285F7018383878190850496F801CC
:1056300062850E941C2FF8018385F701848387818E
:1056400090850596F80163850E941C2FF8018485DA
:10565000F7018583878190850696F80164850E940D
:105660001C2FF8018585F701868387819085079631
:10567000F80165850E941C2F81E78887F7018181E9
:10568000898783E010C0F8016085F7018181681780
:1056900081F483E788876987862F0E949B2A1A8670
:1056A0008111DA8684E08E83CE01019663E00E9448
:1056B00092042E96E8E00C94DB2CFC0180E09FEF36
:1056C000948315828F5F32968F30D1F70895EF92D1
:1056D000FF921F93DF93CF93CDB7DEB72E970FB610
:1056E000F894DEBF0FBECDBF7C01162F0E94E404EC
:1056F0009C0183E290E09C838B8385E08F83112360
:1057000011F08AE001C08BE08887F70183818987E7
:1057100083E08E8381E08D833A832983CE010196D5
:1057200060E00E9492042E960FB6F894DEBF0FBE82
:10573000CDBFCF91DF911F91FF90EF900895FF9221
:105740000F931F93CF93DF938C01FB0187818D33E0
:1057500009F077C0908561859801D801E0E0F0E01C
:1057600014968C911497891751F4EE0FFF1FE00FD8
:10577000F11F658390E0C0E0D0E0FF241FC03196A8
:105780001296EF30F10561F7F801A0E0B0E08481F6
:105790008F3F71F4FD013296EE0FFF1FE00FF11FF6
:1057A0009083AA0FBB1FA00FB11F15966C93E2CF79
:1057B00011963296AF30B10551F7DCCFD90115966D
:1057C0008C91882319F0C80FD11DF3949F5F2E5F31
:1057D0003F4F9F3099F7209781F1EDB7FEB737978C
:1057E0000FB6F894FEBF0FBEEDBF319684E0ADB7A3
:1057F000BEB711968C938DE694E092838183CE019F
:105800006F2D70E00E94512C63831482F582168202
:105810000E94070C8C2F6F2D0E94452CEDB7FEB710
:1058200037960FB6F894FEBF0FBEEDBF8A3018F062
:10583000C80161E004C0863020F4C80160E00E9425
:10584000672BCDB7DEB7E5E00C94DE2C629FD0016C
:10585000739FF001829FE00DF11D649FE00DF11D2B
:10586000929FF00D839FF00D749FF00D659FF00DDA
:105870009927729FB00DE11DF91F639FB00DE11DC7
:10588000F91FBD01CF0111240895991B79E004C0CF
:10589000991F961708F0961B881F7A95C9F780956F
:1058A0000895AA1BBB1B51E107C0AA1FBB1FA61767
:1058B000B70710F0A61BB70B881F991F5A95A9F7B9
:1058C00080959095BC01CD01089597FB092E072680
:1058D0000AD077FD04D0E5DF06D000201AF47095D9
:1058E00061957F4F0895F6F7909581959F4F0895A4
:1058F000A1E21A2EAA1BBB1BFD010DC0AA1FBB1FD4
:10590000EE1FFF1FA217B307E407F50720F0A21B45
:10591000B30BE40BF50B661F771F881F991F1A94B2
:1059200069F760957095809590959B01AC01BD01DC
:10593000CF01089597FB092E05260ED057FD04D000
:10594000D7DF0AD0001C38F450954095309521954A
:105950003F4F4F4F5F4F0895F6F7909580957095A4
:1059600061957F4F8F4F9F4F08952F923F924F9297
:105970005F926F927F928F929F92AF92BF92CF92DF
:10598000DF92EF92FF920F931F93CF93DF93CDB7E8
:10599000DEB7CA1BDB0B0FB6F894DEBF0FBECDBF60
:1059A00009942A88398848885F846E847D848C8431
:1059B0009B84AA84B984C884DF80EE80FD800C813A
:1059C0001B81AA81B981CE0FD11D0FB6F894DEBF1D
:1059D0000FBECDBFED010895EE0FFF1F0590F491AE
:1059E000E02D0994FB01DC010D900020E9F71197EF
:1059F00001900D920020E1F70895AEE0B0E0E3E001
:105A0000FDE20C94C32C8C0177FF02C060E070E8CB
:105A1000615070407E836D831A8309838EE08C838E
:105A2000CE010196BA01A9010E94272D2D813E8148
:105A300037FD09C0EF81F8852E173F070CF4F901F7
:105A4000E00FF11F10822E96E4E00C94DF2CABE007
:105A5000B0E0EDE2FDE20C94B52C3C012B015A01C3
:105A6000FC0117821682838181FD03C06FEF7FEFF7
:105A7000C6C19AE0892E1E010894211C311CF30135
:105A80002381F20123FD859123FF81912F0188233A
:105A900009F4B2C1853239F423FD859123FF819148
:105AA0002F01853229F490E0B3010E94452FE7CF02
:105AB000982FFF24EE249924FFE1FF15D0F09B32AC
:105AC00069F09C3228F4903259F0933291F40EC070
:105AD0009D3249F0903369F441E024C052E0F52A48
