:100000000C94ED020C9412030C9412030C94120342
:100010000C9412030C9412030C9412030C9412030C
:100020000C9412030C9412030C9412030C941203FC
:100030000C9412030C9412030C9412030C941203EC
:100040000C9412030C9412030C946E060C9412037D
:100050000C9412030C9412030C9412030C941203CC
:100060000C9412030C9412030C9412030C941203BC
:100070001A041E041A0420041A0420041A041A0480
:1000800020041A0420041A04A50A3B0CA80A3B0CFD
:10009000AC0A3B0C3B0C3B0CAF0A3B0C3B0C3B0C47
:1000A0003B0C3B0C3B0C3B0C3B0C3B0C3B0CB80A9D
:1000B0003B0CCE0A3B0CDC0A3B0C3B0C3B0C3B0CD8
:1000C0003B0C040B3B0C380B430B3B0C480B3B0C21
:1000D0003B0C3B0C3B0C3B0C500B3B0C810B3B0C8F
:1000E000B20B3B0CE30B3B0C1B0C555345525041E0
:1000F0004E454C5F56455253494F4E5F302E392E78
:10010000355F0043414E49585F56455253494F4E63
:100110005F302E392E355F007274633A206E6F2087
:100120006D6F72652068616E646C657273006964DE
:100130006C653A206E6F206D6F72652068616E6429
:100140006C657273007265675F6672616D653A20F7
:100150006E6F206D6F72652068616E646C6572737E
:10016000004544533A20646F6E652E004544533A6F
:1001700020666F726D6174696E672E2E2E00454485
:10018000533A2064617461207370616365206E6FFF
:100190007420666F726D61746564004544533A2043
:1001A0006461746120737061636520697320666F98
:1001B000726D617465642E004544533A20666F7217
:1001C0006D61743A2070203D2025642C2073697A7B
:1001D000653D2564006C63646374726C5F73657461
:1001E0005F6C696768743A2025642C2564006C6331
:1001F000646374726C5F7365745F6C696768743A8A
:10020000207A656974207A6F6E6520666F756E64FA
:10021000204025640020636F6E74726173743A200D
:10022000256400206261636B6C696768743A2025FD
:100230006400207A6569747A6F6E653A20256400DF
:100240006C63646374726C5F7365745F6C69676818
:10025000743A206C6967687420626C6F636B206607
:100260006F756E6420402564006C63646374726C07
:100270005F7365745F6C696768743A206D6F64655D
:100280003D696E616374697665006B657974696D4B
:1002900065203D20257800736176655F73686F7215
:1002A00074637574202578006B657974696D6520B9
:1002B0003D202578006C6F61645F73686F727463B2
:1002C0007574202578006B65795F646F776E2025E3
:1002D000780A0073686F7274637574732065727244
:1002E0006F72007061676520737461636B20756E57
:1002F000646572666C6F7700706167652073746106
:10030000636B206F766572666C6F77004368696C0B
:10031000642D532E206E2E206765662E005365696E
:100320007465206E2E206765662E005365697465BE
:10033000207A752067722E00536F00536100467259
:1003400000446F004D69004469004D6F6E00676F97
:10035000746F20706167652025640A0070616765AD
:10036000202564206E6F7420666F756E640A006CC1
:100370006F61645F706167653A202332202E61707F
:100380002E706167655F69643D25640A006C6F616A
:10039000645F706167653A202332202E61702E629F
:1003A0006C6F636B5F73697A653D25640A006C6FDF
:1003B00061645F706167653A202332202E61702E80
:1003C000626C6F636B5F747970653D25640A006CC5
:1003D0006F61645F706167653A202331202E617020
:1003E0002E706167655F69643D25640A006C6F610A
:1003F000645F706167653A202331202E61702E6240
:100400006C6F636B5F73697A653D25640A006C6F7E
:1004100061645F706167653A202331202E61702E20
:10042000626C6F636B5F747970653D25640A007060
:1004300061676520282564292073697A6520746FB7
:100440006F206C617267650A006C6F616420706177
:1004500067652025640A00202D20004461756572BF
:100460003D25643A25303264680044617565723D0B
:1004700025643A253032646800202D200054733DF5
:10048000253032642E2564DF430054733D2530321D
:10049000642E2564DF4300526174653D2564252583
:1004A00000202D20004D6F6465206175746F004D34
:1004B0006F646520546865726D2E004D6F64652011
:1004C0006D616E75656C6C004D6F64652061757350
:1004D000002054693D253032642E2564DF43002519
:1004E0003673004665686C657221004461756572FB
:1004F0003D25643A253032646800202D2000547375
:100500003D253032642E2564DF4300202D20004D30
:100510006F6465206175746F004D6F646520546869
:1005200065726D2E004D6F64652046726F73742E78
:100530006B75727A004D6F64652046726F73742E0E
:10054000004D6F6465206175730025367300257357
:1005500000257300253136730025313673002C25B4
:1005600033646D696E5D005B25735D002573002546
:100570007300202564206F6666656E0046656E73A5
:100580007465723A0074656D705F616E7A65696753
:10059000653A2074656D7073656E736F7220726555
:1005A000706C6179202564206D697373696E6700D2
:1005B000543D2564DF43002573007765636B656EEA
:1005C00020696E2025643A2530326468002538732E
:1005D000004665686C657221000011241FBECFEFD4
:1005E000D0E1DEBFCDBF11E0A0E0B1E0E2E1F8E58F
:1005F00002C005900D92A436B107D9F713E0A4E626
:10060000B1E001C01D92AF3EB107E1F7EFEEF3E0BC
:100610008AEA91E18193E030F907E0F30E94140344
:100620000C94072C0C9400002FE088E190E00FB6AA
:10063000F894A895809360000FBE209360000E94FC
:10064000010681E493E06FEF7FEF41E025E00E9437
:10065000540580E490E10E94080584E690E10E9440
:100660002E058CE00E9431110E94F6100E946D113F
:100670000E94C7120E948A170E94F70480E090E04F
:1006800008950F931F93CF93DF93EC018E818530F4
:1006900089F40A811B810E94DF050817190739F0C8
:1006A0008A819B818332910511F0849719F4CE01E0
:1006B0000E947213DF91CF911F910F91089540E036
:1006C00020E030E0C901880F991FFC0153E0EE0FD4
:1006D000FF1F5A95E1F7E81BF90BE95DFD4F80819B
:1006E00081114F5F2F5F3F4F2C30310559F7842F19
:1006F000089520E030E0422FC901880F991FFC01C6
:1007000073E0EE0FFF1F7A95E1F7E81BF90BE95D47
:10071000FD4F8081882331F42F5F3F4F2C3031050E
:1007200051F740E0842F089520E030E0422FC901C6
:10073000880F991FFC01A3E0EE0FFF1FAA95E1F7B8
:10074000E81BF90BE95DFD4F8081882331F02F5FB5
:100750003F4F2C30310551F740E0842F089510921F
:100760001E0210921A0210921B0210921C0210928A
:100770001D0210921F02109220021092210210926C
:1007800022028FEF809323021092240210922502FE
:100790001092260295E095BD91E090936E0086BD83
:1007A0000895809122028F5F80932202809122021D
:1007B0008C3309F05DC010922202809121028F5F7C
:1007C00080932102809121028C3309F051C0109254
:1007D0002102809123028F3F29F0809123028F5FB5
:1007E00080932302809120028F5F8093200280916A
:1007F00020028831E9F51092200280911F028F5F5C
:1008000080931F0280911F02883019F481E0809349
:100810001F02809124028F5F809324028091250221
:1008200090E0FC013197EC30F10530F4E85CFF4FCB
:100830000C94A7289FE105C090E003C09CE101C093
:100840009EE180912402981798F491E090932402FD
:10085000809125028F5F80932502809125028D3043
:1008600038F090932502809126028F5F80932602B4
:1008700008958091230290E08F3F09F091E0892F45
:1008800008950F931F93CF93DF938C01C8E7D1E0B6
:10089000E881F981309701F12A813B818FEF2F3F69
:1008A000380741F0D80112968D919C911397281723
:1008B000390791F49C81992329F0D80114968C91E1
:1008C000981751F49D81992329F0D80116968C919F
:1008D000981711F4C80109952696B1E0C83DDB07C9
:1008E000B9F6DF91CF911F910F91089528E088E12B
:1008F00090E00FB6F894A895809360000FBE209307
:100900006000FFCFA2E1B0E0E8E8F4E00C947828C2
:1009100008ED11E0E5E0AE2EB12CAC0EBD1E7BE083
:10092000C72ED12CCC0EDD1E7E010894E11CF11CDB
:100930000E949009882331F1C701B6010E949709EE
:100940008A8789819A81AB81BC819C01AD016AE073
:1009500056954795379527956A95D1F7337038871F
:100960002F839C0133703E832D8324E1B695A79598
:10097000979587952A95D1F787708987C5010E9439
:10098000410406C0D801ED91FC91309709F009951A
:100990000E5F1F4FB1E0083E1B0751F66296EAE07A
:1009A0000C949428982F809174018823F9F481E0A5
:1009B00080937401892F90E0A0E0B0E0809316024C
:1009C00090931702A0931802B09319020E94820418
:1009D0008091160290911702A0911802B09119020D
:1009E0000097A105B10591F7109274010895109236
:1009F000D0021092CF02A8950E9482048091CF026B
:100A00009091D00201969093D0028093CF02F3CFC1
:100A10009C01A8EEB1E0E0E0F0E08D919C9111978F
:100A2000892B39F4EE0FFF1FE851FE4F31832083ED
:100A3000089531961296E830F10579F700D00F92BB
:100A400081E0EDB7FEB7818388E191E093838283F3
:100A50000E94020D0F900F900F9008959C01A8ED39
:100A6000B1E0E0E0F0E08D919C911197892B39F491
:100A7000EE0FFF1FE852FE4F318320830895319619
:100A80001296E830F10579F700D00F9281E0EDB7CA
:100A9000FEB781838EE291E0938382830E94020DF0
:100AA0000F900F900F900895CF93DF93EC01E8E73C
:100AB000F1E0A0E0B0E080819181892BB9F4FD01E3
:100AC000EE0FFF1FEA0FFB1FEE0FFF1FDF01A858FD
:100AD000BE4F1196DC93CE93E658FE4F7183608330
:100AE00014964C93149715962C9314C01196369621
:100AF000A031B10501F700D00F9281E0EDB7FEB74C
:100B0000818385E491E0938382830E94020D0F909C
:100B10000F900F90DF91CF9108951F93CF93DF93A4
:100B2000EC01162F0E94F8088823F1F16A817B817D
:100B300080E090E0737080709070AAE0660F771F7D
:100B4000881F991FAA95D1F72C8130E040E050E032
:100B50002770307040705070F4E1220F331F441F33
:100B6000551FFA95D1F7622B732B842B952B288177
:100B7000398140E050E0337040705070622B732B2D
:100B8000842B952B212F30E040E050E0522F44275A
:100B900033272227622B732B842B952BAE014A5FC0
:100BA0005F4F2D810E945C08CE010E944104DF91BD
:100BB000CF911F91089563E00E948D0508950F93D2
:100BC0001F938091750190917601892B99F482E0B1
:100BD00090E00E94472B082F83E090E00E94472B73
:100BE000382F20E010E0202B312B3370309376012A
:100BF0002093750180917501909176011F910F915D
:100C000008951F930E94AF03E8E7F1E0118210827C
:100C1000369681E0E83DF807C9F7E8EDF1E011927A
:100C2000119281E0E83EF807D1F7E8EEF1E0119289
:100C3000119281E0E83FF807D1F720E030E0C901E8
:100C4000880F991FFC01B3E0EE0FFF1FBA95E1F783
:100C5000E81BF90BE95DFD4F10822F5F3F4F2C30F1
:100C6000310569F70E94AC070E940B0A182F0E94F9
:100C7000DF05BC0186E89AE041E021E00E945405CE
:100C800086E89AE064E270E041E021E00E945405C9
:100C90008FE39CE064E270E041E026E00E945405AE
:100CA0000E94DF05BC018FE39CE041E026E00E944A
:100CB000540585E090E00E94472B0E94FF0C789439
:100CC0000E94EA0F0E94DF05BC018CE29FE041E038
:100CD00027E00E945405812F1F9108951F920F92C3
:100CE0000FB60F9211240F931F932F933F934F939F
:100CF0005F936F937F938F939F93AF93BF93EF9384
:100D0000FF93DF93CF93CDB7DEB72C97DEBFCDBF78
:100D10008FEF86BD0E940D09882309F4A0C0CE0183
:100D20000196BE016B5F7F4F0E941209182F0E942F
:100D30005F038C3008F080C020E030E0622FC901F2
:100D4000880F991FFC0103E0EE0FFF1F0A95E1F7E2
:100D5000E81BF90BE95DFD4F8081882331F02F5F9F
:100D60003F4F2C30310551F760E0862F90E0880F1F
:100D7000991FFC01A3E0EE0FFF1FAA95E1F7E81B06
:100D8000F90BE95DFD4F81E0808329813A814B8138
:100D90005C81862F90E0880F991FFC0173E0EE0FB5
:100DA000FF1F7A95E1F7E81BF90BE95DFD4F218301
:100DB000328343835483862F90E0880F991FFC0170
:100DC00043E0EE0FFF1F4A95E1F7E81BF90BE95DE1
:100DD000FD4F158340E050E0DE01159617C0FD0180
:100DE000E40FF51F2081862F90E0880F991FFC01EA
:100DF00003E0EE0FFF1F0A95E1F7E81BF90BE95D31
:100E0000FD4FE40FF51F26834F5F5F4F411738F307
:100E10008091640190916501A0916601B091670194
:100E20000196A11DB11D8093640190936501A0936B
:100E30006601B093670113C08091680190916901C8
:100E4000A0916A01B0916B010196A11DB11D809323
:100E5000680190936901A0936A01B0936B0180913E
:100E600077018F5F809377018150833208F45CC0F3
:100E70001092770180911E028F5F80931E028091F5
:100E80001E02843619F510921E0280911A0290916A
:100E90001B02A0911C02B0911D020196A11DB11D63
:100EA00080931A0290931B02A0931C02B0931D0220
:100EB0008091CF029091D0029093D2028093D10280
:100EC0001092D0021092CF020E94D10308EE11E0DE
:100ED000D801ED91FC91309709F009950E5F1F4FF5
:100EE000B1E0083F1B07A1F780911602909117020D
:100EF000A0911802B0911902181619061A061B06BD
:100F00009CF48091160290911702A0911802B09162
:100F100019020197A109B109809316029093170253
:100F2000A0931802B09319022C96DEBFCDBFCF91CB
:100F3000DF91FF91EF91BF91AF919F918F917F9141
:100F40006F915F914F913F912F911F910F910F9052
:100F50000FBE0F901F90189584B1806A84B92F98A6
:100F600080E58CBD81E08DBD08958EBD0DB407FE7A
:100F7000FDCF8EB508951EBC0DB407FEFDCF8EB516
:100F800008952C9808952C9A0895982F2C9885E010
:100F90008EBD0DB407FEFDCF8EB59EBD0DB407FE10
:100FA000FDCF8EB56EBD0DB407FEFDCF8EB54EBD27
:100FB0000DB407FEFDCF8EB52C9A0895982F2C986E
:100FC00083E08EBD0DB407FEFDCF8EB59EBD0DB482
:100FD00007FEFDCF8EB51EBC0DB407FEFDCF8EB54E
:100FE0002C9A0895982F2C9882E08EBD0DB407FEA0
:100FF000FDCF8EB59EBD0DB407FEFDCF8EB56EBD87
:101000000DB407FEFDCF8EB52C9A08951F93182FAF
:101010008FE060EE412F0E94C5078FE00E94DE073F
:1010200090E0807E811391E0892F1F910895982F81
:101030002C9882E08EBD0DB407FEFDCF8EB59EBD0F
:101040000DB407FEFDCF8EB5FB0107C080818EBDBC
:101050000DB407FEFDCF31968EB58E2F861B8417FB
:10106000A8F32C9A0895982F2C9883E08EBD0DB488
:1010700007FEFDCF8EB59EBD0DB407FEFDCF8EB52C
:10108000FB019FEF06C09EBD0DB407FEFDCF8EB5E0
:1010900081938E2F861B8417B0F32C9A0895F894B1
:1010A0008295807F805D0E94DE0778948695869584
:1010B0008695809581700895A4E0B0E0E2E6F8E0BE
:1010C0000C9478287B018C015A01C22E80E00E948A
:1010D0004F08882329F581E00E944F08882319F0E2
:1010E000DD24D3941EC082E00E944F08882319F0AB
:1010F00042E0D42E16C08091700190917101A091B0
:101100007201B09173010196A11DB11D8093700110
:1011100090937101A0937201B093730181E064C058
:10112000DD24F894D801C70135E1B695A7959795C8
:1011300087953A95D1F78983C801AA27BB27837081
:10114000A80197019DE056954795379527959A9563
:10115000D1F7207E822B88608A83BB27A12F902F16
:101160008F2D8B83EC821D2D1295107F812F8F5C2C
:10117000BE016F5F7F4F44E00E941708812F8B5C98
:101180006C2D0E94F207812F8A5CB5014C2D0E94C4
:101190001708812F805D68E048E00E94C5072C9801
:1011A00081E090E00D2C02C0880F991F0A94E2F7AD
:1011B00080688EBD0DB407FEFDCF8EB52C9A789455
:1011C00080916C0190916D01A0916E01B0916F01C1
:1011D0000196A11DB11D80936C0190936D01A093A8
:1011E0006E01B0936F0180E02496EAE00C9494289D
:1011F00080E00E944F08882361F481E00E944F083C
:10120000882339F482E00E944F0820E030E08823F0
:1012100011F021E030E0822F08958CE20E94DE0779
:1012200081700895A4E0B0E0E8E1F9E00C9478283A
:101230008C017B0181E6BE016F5F7F4F44E00E941D
:1012400033088A81A82EBB24CC24DD242B8130E0F6
:1012500040E050E0542F432F322F2227898190E025
:10126000A0E0B0E0E5E1880F991FAA1FBB1FEA9537
:10127000D1F7282B392B4A2B5B2B8C8190E0A0E0F7
:10128000B0E0282B392B4A2B5B2BD601C50183708C
:101290009070A070B070DC0199278827282B392B1B
:1012A0004A2B5B2B80EE90E0A0E0B0E0A822B922B0
:1012B000CA22DB226DE0AA0CBB1CCC1CDD1C6A958B
:1012C000D1F72A293B294C295D29D8012D933D933B
:1012D0004D935C93139785E60E94DE07182F1F70CD
:1012E00086E6B701412F0E9433088CE261E040E0BE
:1012F0000E94C507812F2496EAE00C9494281F933E
:101300008DE10E94DE07182F8CE10E94DE07512F2D
:1013100040E0282F30E0242B352BC9011F91089580
:10132000F8940E945F037894811181E008950F93EF
:101330001F93CF93DF93EC018B01F8940E945F031E
:10134000882311F420E060C00E947903382F90E0D8
:10135000880F991FFC01A3E0EE0FFF1FAA95E1F78C
:10136000E81BF90BE95DFD4F81819281A381B48176
:1013700088839983AA83BB8320E017C0A22FB0E0A3
:10138000832F90E0880F991FFC0163E0EE0FFF1F91
:101390006A95E1F7E81BF90BE95DFD4FEA0FFB1FCA
:1013A0008681A00FB11F8C932F5F832F90E0880F51
:1013B000991FFC0143E0EE0FFF1F4A95E1F7E81B80
:1013C000F90BE95DFD4F85812817C0F2832F90E06E
:1013D000880F991FFC0113E0EE0FFF1F1A95E1F72C
:1013E000E81BF90BE95DFD4F2581832F90E0880F05
:1013F000991FFC01A3E0EE0FFF1FAA95E1F7E81B80
:10140000F90BE95DFD4F10827894822FDF91CF9127
:101410001F910F910895249A2C9A2C9880EC8EBDE0
:101420000DB407FEFDCF8EB52C9A8FEF90E00E9491
:101430003E0A80E80E9406088823F9F48AE263E005
:101440000E94F20789E260E90E94F20788E262E006
:101450000E94F2078BE260E00E94F20780E660E6FD
:101460000E94F2078CE060E00E94F2078DE060E0ED
:101470000E94F20780E00E940608089507C021EE4E
:1014800032E0000021503040E1F701970097B9F7B2
:101490000895009711F400C008950197F1F7089599
:1014A0000F939CE3899FF0011124E60FF11D499FE2
:1014B000B0011124620F711D809120022091210240
:1014C000899FA0011124420F511D6E177F0738F428
:1014D00060567A4F4E175F0710F440565A4F2091CE
:1014E0001F02802F90E002C0959587952A95E2F71C
:1014F00080FF09C04E175F0730F080E06417750762
:1015000018F081E001C080E00F910895AEE0B0E0F6
:10151000ECE8FAE00C947C287C010E94DF059A83B9
:101520008983F701808191819C838B8381E08D8306
:101530008F83878190E0FC013197E133F10508F05A
:101540009AC1EC5BFF4F0C94A72882E088876DC19D
:1015500084E0888782E02DC00E9476048CC18AE0F6
:10156000888782E0898784E090E00E94472B95C0BD
:10157000F701918580E02085022F10E0082B192BC0
:10158000C8010E94472BF7016285861719F0C80130
:101590000E94592B85E1888782E047C187E18887CF
:1015A000F701918580E0208530E0822B932B0E940B
:1015B000472B898783E039C1F701918580E0008559
:1015C00010E0082B192B89E18887C8010E94472B5E
:1015D0008987C80101960E94472B8A87C801029615
:1015E0000E94472B8B87C80103960E94472B8C874C
:1015F000C80104960E94472B8D87C80105960E945A
:10160000472B8E8788E011C186E08E838FE1888723
:1016100080911A0290911B02A0911C02B0911D02B0
:101620008B2F9927AA27BB27898780911A0290912F
:101630001B02A0911C02B0911D02CD01AA27BB275D
:101640008A8780911A0290911B02A0911C02B0918E
:101650001D02892F9A2FAB2FBB278B8780911A02EF
:1016600090911B02A0911C02B0911D028C87DEC0DC
:10167000F70180850E94FF0C85E090E0F70160850E
:101680000E94592BF8C082E28887198688E305C03A
:101690000E947F0924E2288799878A8784E0C5C051
:1016A0008AE288878091640190916501A09166012A
:1016B000B09167018B2F9927AA27BB278987809133
:1016C000640190916501A0916601B0916701CD011F
:1016D000AA27BB278A878091640190916501A09118
:1016E0006601B0916701892F9A2FAB2FBB278B879B
:1016F0008091640190916501A0916601B0916701AC
:1017000092C08CE288878091680190916901A091D4
:101710006A01B0916B018B2F9927AA27BB27898774
:101720008091680190916901A0916A01B0916B016B
:10173000CD01AA27BB278A87809168019091690112
:10174000A0916A01B0916B01892F9A2FAB2FBB2713
:101750008B878091680190916901A0916A01B09195
:101760006B0161C08EE2888780916C0190916D0160
:10177000A0916E01B0916F018B2F9927AA27BB27EB
:10178000898780916C0190916D01A0916E01B0915B
:101790006F01CD01AA27BB278A8780916C019091A8
:1017A0006D01A0916E01B0916F01892F9A2FAB2F1F
:1017B000BB278B8780916C0190916D01A0916E0188
:1017C000B0916F0130C080E3888780917001909163
:1017D0007101A0917201B09173018B2F9927AA27F3
:1017E000BB2789878091700190917101A09172014E
:1017F000B0917301CD01AA27BB278A878091700120
:1018000090917101A0917201B0917301892F9A2F6B
:10181000AB2FBB278B878091700190917101A091B4
:101820007201B09173018C8786E08E83CE010196A0
:101830000E94DB0520C01092640110926501109295
:10184000660110926701109268011092690110926E
:101850006A0110926B0110926C0110926D0110924E
:101860006E0110926F01109270011092710110922E
:101870007201109273012E96E6E00C949828AEE067
:10188000B0E0E5E4FCE00C947A287C010E94DF05DE
:101890009A838983D7018D919C9111979C838B8327
:1018A000DD24D394DD8286E0C82ECF8217968C91FA
:1018B000823009F45FC0833020F4813009F09BC08E
:1018C00007C0833009F461C0843009F094C079C046
:1018D000109223020091220260912002C090210206
:1018E000F701D484828590E0A0E1BEE08A9F900158
:1018F0008B9F300D9A9F300D112483851CE3819FAF
:10190000C0011124280F391F2D0D311D442737FD2B
:101910004095542F70E06A9FC0016B9F900D7A9F95
:10192000900D1124C19EF00111248E0F9F1F800F76
:10193000911DAA2797FDA095BA2F281B390B37FFB9
:1019400003C0309521953F4F243031050CF453C02E
:10195000D0922202D7011B968C911B978093210273
:101960001A968C911A978093200219968C918093E5
:101970001F0241C0F70181858093240282858093F4
:10198000250283858093260236C0D70112960D91D9
:101990001C9113970E94DF050817190761F5D88677
:1019A0008FEF898780911F028A87809120028B8721
:1019B000809121028C87809122028D8787E08E831F
:1019C00016C0F701028113810E94DF05081719076D
:1019D00091F482E088878FEF8987809124028A873B
:1019E000809125028B87809126028C87CE82CE0142
:1019F00001960E94DB052E96E8E00C9496288093D1
:101A0000F8010895AF92BF92CF92DF92FF920F93A9
:101A10001F93DF93CF93CDB7DEB7CE58D0400FB62C
:101A2000F894DEBF0FBECDBFC656DF4FF880CA594F
:101A3000D0408091F8018F1508F45BC0FE01E35699
:101A4000FF4F8E01015F1F4FC8016EE770E0C55662
:101A5000DF4F48815981CB59D0409F010E943029E6
:101A6000C80160E071E00E94C3280E94DF059A83EC
:101A700089838AEC93E09C838B8383E08D83FF8250
:101A8000FF2421E087E0A82EB12CAC0EBD1E6E0114
:101A90000894C11CD11C1EC0A8950BC0F501E20F13
:101AA000F11DA00FB11F8C9180832F5FF39428301C
:101AB00060F4F80101900020E9F73197E01BF10B89
:101AC000AF2DB0E0AE17BF0748F32E83C6010E94CA
:101AD000DB0520E0F80101900020E9F73197E01BD9
:101AE000F10B8F2D90E08E179F07B0F281E00E94DE
:101AF000D204C257DF4F0FB6F894DEBF0FBECDBF82
:101B0000CF91DF911F910F91FF90DF90CF90BF9009
:101B1000AF900895AF92BF92CF92DF92FF920F9352
:101B20001F93CF93DF935C016B01FF24C42FD0E0A0
:101B3000219707C08A0D9B1D0E94472BF8018083C7
:101B4000F3948F2D90E08601080F191F8C179D07C5
:101B50008CF3F8011082DF91CF911F910F91FF90CC
:101B6000DF90CF90BF90AF9008950F931F938C019B
:101B700001960E94472B282F30E02E5F3F4F200F09
:101B8000311FC9011F910F9108950F931F93CF9398
:101B9000DF93EC01062F142F009721F018C0C2E24A
:101BA000D0E015C082E290E00E94472B8017B8F386
:101BB0001817A8F3C2E2D0E010C0CE010E94B50D04
:101BC000EC010E94472B801710F0181730F487E0C3
:101BD000CF3FD80790F3C0E0D0E0CE01DF91CF91A6
:101BE0001F910F9108951F93CF93DF93EC01162F50
:101BF0000097A1F482E290E00E94472B811761F4E4
:101C0000C2E2D0E011C0CE010E94B50DEC010E94ED
:101C1000472B811719F408C0C2E2D0E087E0CF3F1C
:101C2000D80788F3C0E0D0E0CE01DF91CF911F91BB
:101C30000895CF92DF92EF92FF921F93CF93DF939D
:101C4000C2E2D0E024C0E114F10409F1CE010E9407
:101C5000472B8823E1F467010894C11CD11CC601FD
:101C60000E94472B182FCE0101960E94472B282F48
:101C700090E0810F911D02968F3F910509F038F495
:101C8000120F1E5FC601612F0E94592BE701CE0182
:101C90000E94472B882319F0EE24FF2401C07E0107
:101CA000CE010E94B50DEC0187E0CF3FD80758F276
:101CB000DF91CF911F91FF90EF90DF90CF9008952B
:101CC000CF93DF93EC0182E290E08C179D0729F41B
:101CD00060E00E94592B80E007C00E94B50D27E00C
:101CE0008F3F920790F382E0DF91CF910895AF92FA
:101CF000BF92DF92EF92FF920F931F93CF93DF93E8
:101D0000D82EC2E2D0E0082F10E058010894A11CA0
:101D1000B11CCE010E94472B882349F57E0108940F
:101D2000E11CF11CC7010E94472B8D1500F18D1598
:101D300041F190E0A816B906D4F40E5F1F4FCE0112
:101D4000800F911F60E00E94592BC7010E94472B12
:101D50000F5F1F4F682F62506D19CE01800F911FCA
:101D60000E94592BC7016D2D0E94592B0AC0CE012C
:101D70000E94B50DEC0187E0CF3FD80750F2C0E0DC
:101D8000D0E0CE01DF91CF911F910F91FF90EF90A6
:101D9000DF90BF90AF900895A0E0B0E0E2EDFEE0EC
:101DA0000C94762880E290E064EE0E94592B81E248
:101DB00090E06DE70E94592B22E2C22ED12C9FEFBA
:101DC000892E97E0992E04E088EBA82E81E0B82EAA
:101DD00076010894E11CF11CC60160E00E94592BB9
:101DE000E401CE19DF09C138D10514F0C0E8D0E014
:101DF0001C2FC7016C2F0E94592B8DB79EB70797D8
:101E00000FB6F8949EBF0FBE8DBFEDB7FEB73196EB
:101E1000ADB7BEB711960C93B282A182D482C382B1
:101E2000C58316820E94020D0894E11CF11C670113
:101E3000CC0ED11C8DB79EB707960FB6F8949EBFF7
:101E40000FBE8DBF9DEFC91697E0D90608F2CDB73A
:101E5000DEB7ECE00C949228AEE0B0E0E2E3FFE005
:101E60000C947A286C010E94DF059A838983F6011D
:101E7000808191819C838B8381E08D8317E01F8318
:101E8000E780F6E0EF1609F44EC0FE1560F083E03F
:101E9000E81609F455C0E4E0EE16B1F1F1E0EF16F2
:101EA00009F094C00DC08AE0E81609F477C0ECE0B0
:101EB000EE1609F489C0F8E0EF1609F087C043C0B8
:101EC000F601908580E0218530E0282B392B211503
:101ED000310519F402E210E00AC0C9010E94B50DF3
:101EE0008C01F7E08F3F9F0710F000E010E082E0E8
:101EF000888719870A87C8010E94472B8B87C801EA
:101F000001960E94472B47C0F60181850E94770EFB
:101F10008C01F60160850E94592B85E0888719871E
:101F20000A87EE824CC0F601908580E0218530E082
:101F3000822B932B0E94600E1887898783E03EC016
:101F40000E94190E43C0F601908580E0E184FF24D1
:101F5000E82AF92A028589E0888710E0C701800F06
:101F6000911F0E94472B89870F5F1F4FC701800F6A
:101F7000911F0E94472B8A870F5F1F4FC701800F59
:101F8000911F0E94472B8B870F5F1F4FC701800F48
:101F9000911F0E94472B8C8786E010C0F601908528
:101FA00080E0218530E0822B932B2285820F911DCA
:101FB00063850E94592B8BE0888782E08E83CE0157
:101FC00001960E94DB0502C00E94CC0E2E96E8E02E
:101FD0000C9496281F9380E290E00E94472B843E49
:101FE000A1F481E290E00E94472B8D3771F400D07C
:101FF0000F9284E0EDB7FEB781838BE991E0938384
:1020000082830E94020D80E026C000D00F9212E071
:10201000EDB7FEB711838EE791E0938382830E9430
:10202000020DEDB7FEB711838CE691E093838283B6
:102030000E94020D0F900F900F900E94CC0E00D0C6
:102040000F92EDB7FEB7118381E691E0938382830F
:102050000E94020D81E00F900F900F901F91089544
:1020600020E030E0EFEEF3E080818A3A39F43196F7
:102070002F5F3F4F81E1E030F807B0F3C9010895C9
:102080008091F9018F5F8093F90191E09093FC01B9
:102090008091F9018A3049F48091FA018F5F809331
:1020A000FA011092F9019093FD018091FA018A30B2
:1020B00051F48091FB018F5F8093FB011092FA0134
:1020C00081E08093FE0108958091FC01882321F036
:1020D0001092FC010E94EF128091FD01882311F003
:1020E0001092FD018091FE01882321F01092FE01E3
:1020F0000E9441170895662311F0409A01C040984C
:1021000041983C9A3D9A3E9A3F9A479846984598FE
:10211000449887FD479A86FD469A85FD459A84FD39
:10212000449A429A00C042984798469845984498E5
:1021300083FD479A82FD469A81FD459A80FD449A27
:10214000429A00C04298449A459A469A479A0895FE
:10215000882311F0409A01C04098419A3C983D98DC
:102160003E983F98429A00C0349B02C080E101C073
:1021700080E035998062369980643799806842980A
:1021800000C0429A00C034998160359982603699C6
:102190008460379988604298089580E00E94A81072
:1021A00087FDFBCF81E090E00E94490A80E00E9419
:1021B000A81008950E94CD1090E008951F93182F45
:1021C0000E94CD10812F61E00E947B101F91089525
:1021D0001F93182F0E94CD10812F60E00E947B106A
:1021E0001F91089582E00E94E810089581E00E9406
:1021F000E8100895662311F4805801C080540E94AD
:10220000E81008951F93182F0E94CD101A3049F43A
:10221000803410F080E001C080E480580E94E81013
:1022200004C0812F61E00E947B101F910895CF931D
:10223000DF93EC0102C00E940211FE0121968491FD
:102240008823C9F7DF91CF910895CF93DF93EC01F5
:1022500002C00E94021189918823D9F7DF91CF91A2
:1022600008951F93182F389A399A3A9A3C9A3D9AB2
:102270003E9A3F9A80E999E30E94490A459A449A16
:10228000429A00C0429885EF91E10E94490A429A21
:1022900000C042988AE390E00E94490A429A00C036
:1022A00042988AE390E00E94490A4498429A00C00A
:1022B00042988AE390E00E94490A88E20E94E8106E
:1022C00088E00E94E8100E94F61086E00E94E81064
:1022D000812F0E94E8101F9108958AB180638AB906
:1022E00081EA8093800089E08093810010928900C8
:1022F0001092880010928B0010928A00089590E04E
:102300009093890080938800089590E090938B00CB
:1023100080938A000895A9E0B0E0E1E9F1E10C942E
:102320007028813049F48EE190E090938900809389
:1023300088008AE090E0F8C0882309F0F9C000D056
:102340000F9284E0ADB7BEB711968C93119789E6D2
:1023500092E013969C938E9312970E94020D62E274
:10236000C62ED12C0F900F900F9014E052E3252E23
:1023700052E0352E43E2442E42E0542E35E1632EE6
:1023800032E0732E24E0822E912C8C0E9D1E9EEE48
:10239000A92E91E0B92EC6010E94472B823609F082
:1023A000B3C0B6016E5F7F4FCE01019643E050E0AF
:1023B0000E94372B00D000D00F92EDB7FEB73196B8
:1023C000ADB7BEB711961C9380E492E092838183EF
:1023D000D482C3820E94020DEDB7FEB73196ADB72D
:1023E000BEB711961C933282218289818383148225
:1023F0000E94020DEDB7FEB73196ADB7BEB711968C
:102400001C93528241828A81838314820E94020D2E
:10241000EDB7FEB73196ADB7BEB711961C93728279
:1024200061828B81838314820E94020D82E2E82EF6
:10243000F12C0F900F900F900F900F90C7010E94FA
:10244000472B823109F058C0B7016E5F7F4FC4013E
:1024500046E050E00E94372B00D000D00F92EDB73D
:10246000FEB73196ADB7BEB711961C93B282A1826A
:10247000F482E3820E94020D0F900F900F900F9054
:102480000F9099818C819817B9F58E816F8148855D
:1024900029850D810E94500A882371F13A81832F8A
:1024A00090E090938900809388002B81822F90E0A8
:1024B00090938B0080938A00EDB7FEB737970FB6E5
:1024C000F894FEBF0FBEEDBF3196ADB7BEB7119603
:1024D0001C9385ED91E0928381833383148225835D
:1024E00016820E94020DEDB7FEB737960FB6F8942C
:1024F000FEBF0FBEEDBF1CC0C70162E10E94F30D1D
:102500007C01009709F09ACFC60162E60E94F30DA4
:102510006C01009709F03FCF83E090E09093890031
:10252000809388008FE090E090938B0080938A00E6
:102530002996E2E10C948C28EF92FF920F931F935F
:10254000CF93DF9300E010E07AE0E72EF12C14C087
:10255000D0938900C0938800F0928B00E0928A00AB
:1025600081E00E94D2042A96C436D10589F70F5F14
:102570001F4F0330110519F0C0E0D0E0E9CF81E032
:102580000E948B11CDB7DEB7E6E00C94982881B19C
:10259000807C81B982B18F6382B98AB180738AB934
:1025A0008BB18F6C8BB980E090E0FC01ED52FD4F58
:1025B0001082FC01ED51FD4F108201968031910592
:1025C000A1F7089580B129B1582F40E030E0242BC5
:1025D000352B209530952F7C3F73C9010895A0E0DD
:1025E000B0E0E5EFF2E10C94742880B199B1382F96
:1025F00020E0892F90E0822B932B809590953FECE3
:10260000C32E3FE3D32EC822D92282FF07C0807C8D
:102610009070803C910511F40E94760423EDE22E27
:1026200022E0F22E03EE12E0C0E0D0E091E0892E2D
:10263000912C85E0782E66246394BC2EAC2EF70195
:102640008081882369F5F8018081882391F4C40191
:102650000C2E02C0880F991F0A94E2F78C219D214D
:10266000892B39F0F7017082F80160828C2F0E946B
:102670007818F80180818130B1F4C4010A2C02C0BD
:10268000880F991F0A94E2F78C219D21892B59F418
:10269000F7017082F80110828B2D0E94E31703C0AE
:1026A0008150F701808321960894E11CF11C0F5F93
:1026B0001F4FC031D10509F6CDB7DEB7EEE00C945F
:1026C00090282FEF2093020391E09093030320932F
:1026D00004031092050310920603109207038093DF
:1026E00008030895CF93DF93EC01809102038636AF
:1026F00029F484E093E0BE010E94F3188091020364
:102700008D3629F484E093E0BE010E9495268091E5
:102710000203893629F484E093E0BE010E94CA22B4
:10272000809102038B3629F484E093E0BE010E947D
:10273000B424809102038C3629F484E093E0BE0136
:102740000E949725DF91CF910895A8E0B0E0EBEAD1
:10275000F3E10C947B28D82E80E090E063E60E94A1
:10276000F30D0097D9F022E0E22EF12CE80EF91ECD
:102770008E010F5F1F4FC801B70148E050E00E9473
:10278000372BFE01ED0DF11D809104038083C801FC
:10279000B70148E050E00E944F2B03C086E00E9442
:1027A00061132896E7E00C949728A0E2B0E0EBEDE7
:1027B000F3E10C947E288DB79EB708970FB6F89476
:1027C0009EBF0FBE8DBFEDB7FEB731968E010F5F76
:1027D0001F4FADB7BEB712961C930E9311978FE1A2
:1027E00090E09383828382E091E09583848388E004
:1027F00093E0978386830E94CE288DB79EB7089674
:102800000FB6F8949EBF0FBE8DBF80E060E00E94BF
:10281000FA10C8010E942511A096E4E00C949A28B1
:10282000A6E2B0E0E6E1F4E10C947C2880911F027E
:102830008430F9F0853038F4823089F08330A0F4A8
:10284000813061F507C08630F1F08630B8F087300E
:1028500029F51EC0CE0101966AE473E01DC0CE01C9
:10286000019667E473E018C0CE01019664E473E05A
:1028700013C0CE01019661E473E00EC0CE01019653
:102880006EE373E009C0CE0101966BE373E004C010
:10289000CE01019668E373E00E94AD2840912402C6
:1028A00050912502209126028DB79EB70E970FB644
:1028B000F8949EBF0FBE8DBFEDB7FEB731968E0167
:1028C000095F1F4FADB7BEB712961C930E931197B9
:1028D0003FE1E32EF12CF382E28288E091E09583E0
:1028E0008483CE0101969783868340871186528721
:1028F000138630E02053384F358724870E94CE2836
:102900008DB79EB70E960FB6F8949EBF0FBE8DBFC3
:1029100080E060E00E94FA10C8010E942511209119
:10292000200230912102ADB7BEB71A970FB6F894C6
:10293000BEBF0FBEADBFEDB7FEB7319612961C936A
:102940000E931197F382E28289E191E0958384836B
:1029500026831782308711860E94CE288DB79EB7B6
:102960000A960FB6F8949EBF0FBE8DBF80E061E05F
:102970000E94FA10C8010E942511A696E6E00C9468
:102980009828A0E2B0E0E7ECF4E10C947C280E94E7
:10299000F61080910203893609F4AEC08A3698F4A5
:1029A000863609F490C0873638F4843609F485C039
:1029B000853609F0B0C084C0873609F493C08836E4
:1029C00009F0A9C094C08D3609F482C08E3638F45F
:1029D0008B3609F496C08C3609F09DC097C08E36B0
:1029E00009F47BC08F3F09F096C08DB79EB708975A
:1029F0000FB6F8949EBF0FBE8DBFEDB7FEB73196F0
:102A00008E010F5F1F4FADB7BEB712961C930E938A
:102A100011978FE190E09383828387E291E0958321
:102A2000848380910803868317820E94CE288DB705
:102A30009EB708960FB6F8949EBF0FBE8DBF80E07C
:102A400060E00E94FA10C8010E94251180910803DD
:102A50008330B9F0843028F4813051F0823031F580
:102A60000BC08530B9F0853080F08630F9F416C09F
:102A7000C8016BE273E016C0CE0101966DE173E010
:102A800011C0C8016CE073E00DC0CE01019668EF83
:102A900072E008C0C80163EE72E004C0CE01019686
:102AA00063ED72E04FE150E00E94B42880E061E005
:102AB0000E94FA10CE0101967FC00E9410147EC0C1
:102AC0000E94D5137BC084E093E00E94881A76C0F0
:102AD00084E093E00E941C2771C084E093E00E9490
:102AE000EC1D6CC084E093E00E946C2167C084E020
:102AF00093E00E940F2262C084E093E00E9486234C
:102B00005DC084E093E00E94342558C084E093E0E7
:102B10000E94FE2553C000D000D000D0EDB7FEB714
:102B200031968E010F5F1F4FADB7BEB712961C9343
:102B30000E9311974FE1E42EF12CF382E28282E3AF
:102B400091E0958384830E94CE288DB79EB7069628
:102B50000FB6F8949EBF0FBE8DBF80E060E00E946C
:102B6000FA10C8010E942511ADB7BEB718970FB66D
:102B7000F894BEBF0FBEADBFEDB7FEB7319612964B
:102B80001C930E931197F382E28282E491E0958385
:102B9000848380910203868317820E94CE288DB79A
:102BA0009EB708960FB6F8949EBF0FBE8DBF80E00B
:102BB00061E00E94FA10C8010E942511A096E6E08B
:102BC0000C949828E091FF01EE2339F485E00E94EF
:102BD00061130E94C1148FEF0895E150E093FF014B
:102BE000F0E0EC50FD4F808108959091FF01973007
:102BF00030F084E00E9461130E94C1140895E92F0F
:102C0000F0E0EC50FD4F80839F5F9093FF010895AB
:102C10001F93CF93DF9310910403812F0E94F5152A
:102C200080E090E020C0CE0103960E94472B8117E0
:102C3000C9F4CE0105960E94472B882399F4CE0152
:102C400001960E94472B482F50E04E5F5F4F473C54
:102C5000510510F081E00FC082E093E0BE010E94B8
:102C6000372B0BC0CE0164E645E90E94C50DEC018F
:102C70000097C9F683E00E9461130E94C114DF919E
:102C8000CF911F910895A0E0B0E0E9E4F6E10C9443
:102C90007A28182F00D000D00F92EDB7FEB73196EA
:102CA00084E0ADB7BEB711968C9389E494E092832B
:102CB0008183138314820E94020D0F900F900F9056
:102CC0000F900F9080E090E064E645E90E94C50D0A
:102CD0007C0102E05FE2C52E54E0D52EAEC0C701F4
:102CE00002960E94472B811709F0A1C0C7010196E7
:102CF0000E94472BC82FD0E02296C73CD105C8F0D0
:102D000000D000D00F92EDB7FEB73196ADB7BEB789
:102D100011960C93D282C182138314820E94020DF9
:102D20000F900F900F900F900F9081E00E94611311
:102D30007EC000D000D00F92EDB7FEB7319614E000
:102D4000ADB7BEB711961C938EE094E09283818359
:102D500080910203838314820E94020DEDB7FEB7B7
:102D60003196ADB7BEB711961C938DEE93E092836A
:102D7000818380910303838314820E94020DEDB747
:102D8000FEB73196ADB7BEB711961C938FEC93E0AA
:102D90009283818380910403838314820E94020DB5
:102DA0000F900F900F900F900F9082E093E0B7017B
:102DB000AE010E94372B00D000D00F92EDB7FEB7C6
:102DC0003196ADB7BEB711961C938EEA93E092830D
:102DD000818380910203838314820E94020DEDB7E8
:102DE000FEB73196ADB7BEB711961C938DE893E050
:102DF0009283818380910303838314820E94020D56
:102E0000EDB7FEB73196ADB7BEB711961C938FE6FE
:102E100093E09283818380910403838314820E94D0
:102E2000020D0F900F900F900F900F9025C0C701CB
:102E300064E645E90E94C50D7C01E114F10409F046
:102E40004ECF00D000D00F92EDB7FEB7319682E0A2
:102E5000ADB7BEB711968C938CE593E092838183D6
:102E6000138314820E94020D0F900F900F900F9009
:102E70000F9082E00E946113CDB7DEB7E8E00C94BA
:102E800096281F938091FC02882349F08091FC02D0
:102E90008F3F29F08091FC028F5F8093FC0280912C
:102EA000F3028823A1F081508093F302882379F400
:102EB0008EE1182F11500E947F1185E00E94D204EC
:102EC000133011F0812FF5CF80E00E948B1180919B
:102ED000220290E08F709070892B41F48091F30270
:102EE000882311F40E948B110E94C1148091FD026D
:102EF0009091FE02009761F001979093FE028093FB
:102F0000FD02892B29F481E00E9443160E94C1141E
:102F10001F9108951092FF021092FC0285E08093A9
:102F2000F3028EE190E09093FE028093FD0281E037
:102F30000E9443160E94C11408951F93182F00D0B9
:102F400000D00F92EDB7FEB7319684E0ADB7BEB7B3
:102F500011968C938EE493E0928381831383148281
:102F60000E94020D0F900F900F900F900F90812FE5
:102F70000E9443160E94C1141F910895A8E0B0E07A
:102F8000E4ECF7E10C947F28182F80E090E063E6F2
:102F90000E94F30DBC01009779F06E5F7F4FCE0168
:102FA000019648E050E00E94372BFE01E10FF11D31
:102FB00080810E949D1703C086E00E9461132896BD
:102FC000E3E00C949B280F931F93813071F08130C4
:102FD00030F0883031F0893009F06AC004C002E076
:102FE00005C001E003C003E001C004E08091FC02E1
:102FF000833050F500D000D00F92EDB7FEB7319678
:1030000014E0ADB7BEB711961C9385EB92E09283A6
:103010008183038314820E94020D0F900F900F9002
:103020000F900F90802F0E94BE172091FC0200D0BD
:1030300000D00F92EDB7FEB73196ADB7BEB711967F
:103040001C9388EA92E029C000D000D00F92EDB71F
:10305000FEB7319614E0ADB7BEB711961C9387E961
:1030600092E092838183038314820E94020D0F9069
:103070000F900F900F900F90802F0E94A51320911A
:10308000FC0200D000D00F92EDB7FEB73196ADB77D
:10309000BEB711961C938AE892E0928381832383C2
:1030A00014820E94020D0F900F900F900F900F90BE
:1030B0001092FC021F910F910895809107038823BD
:1030C00021F00E9443160E94C114089580910603C6
:1030D000882321F00E9443160E94C1140895809114
:1030E0000503882321F00E9443160E94C11408950D
:1030F0001F93182F00D000D00F92EDB7FEB7319676
:1031000084E0ADB7BEB711968C9386EC92E09283C3
:103110008183138314820E94020D8AE08093F3025C
:103120000F900F900F900F900F908EE10E947F11E3
:103130008AE00E9485118CE291E09093FE028093D8
:10314000FD0281E08093FC0290910203963631F4F7
:1031500084E093E0612F0E94D41C43C09D3631F47B
:1031600084E093E0612F0E94CD273BC09E3631F46E
:1031700084E093E0612F0E94432033C0973631F4FE
:1031800084E093E0612F0E94D6212BC0983631F461
:1031900084E093E0612F0E94792223C0993631F4B4
:1031A00084E093E0612F0E942F241BC08091FF02D6
:1031B0008823B9F4133039F4943611F0953689F434
:1031C0000E9408160EC0123019F40E946F1809C030
:1031D000173019F40E945D1804C0163011F40E94D3
:1031E00066181F910895FB012781273371F028335A
:1031F00030F4233351F0253309F074C006C029336D
:1032000021F02C3309F06EC059C080910002882350
:1032100009F468C0909101028085891709F062C0A5
:10322000809100028E7F80930002253399F026332F
:1032300020F4233309F056C006C02733A9F0293300
:1032400009F050C029C0109202021092050210929B
:1032500004022FC081E080930202818580930302E3
:10326000928580E0238510C082E0809302029185E0
:1032700080E0228530E0822B932B9093050280938F
:103280000402938580E0248530E0822B932B909379
:10329000090280930802089583E0809302029185D9
:1032A00080E0228530E0822B932B9093050280935F
:1032B00004021092090210920802089590910102EE
:1032C0008085891779F4809100028D7F80930002B8
:1032D000918580E0228530E0822B932B909307022A
:1032E000809306020895AEE0B0E0E9E7F9E10C94BE
:1032F0007E288C010E94DF05AC0185E08F838091E0
:103300000A02882321F0833008F061C033C0909115
:10331000CC03913079F0913030F09230B1F09330AD
:1033200009F055C020C084E38887F8018485898727
:1033300083E04CC086E38887F801848589871A86F4
:1033400084E58B8780E68C8727C088E38887F8012F
:103350008485898781E08A8780E48B8784E58C87F0
:1033600080E68D8732C08AE38887F8018485898763
:103370009E832DC08091CC03813081F486E38887C1
:10338000F801848589878091CD038A879091CA034B
:103390008091CB038B879C8786E018C08230B9F47C
:1033A00088E38887F801848589872091C803309154
:1033B000C903832F992787FD9A958A872B87909138
:1033C000CA038091CB038C879D8787E08E8381E041
:1033D0008D8383E290E09C838B835A834983CE0163
:1033E000019660E00E948D052E96E4E00C949A28E8
:1033F0002F923F924F925F926F927F928F929F9205
:10340000AF92BF92DF92EF92FF920F931F93DF93E1
:10341000CF93CDB7DEB72E970FB6F894DEBF0FBEB1
:10342000CDBFD82E5B014A013901180127018093D5
:10343000010210920502109204020E94DF059A8395
:10344000898383E290E09C838B83EE24E394ED8276
:1034500085E08F8382E38887D98693E0F92EFE8208
:103460008E010F5F1F4FC80160E00E948D05E09242
:10347000000285E00E94D2048BE38887D986FE8211
:10348000C80160E00E948D0582E08093000285E023
:103490000E94D20480910002882311F081E020C0B4
:1034A00080910202F501808380910302F401808300
:1034B0008091040290910502F301918380838091B1
:1034C000060290910702F2019183808380910802A5
:1034D00090910902F101918380831092010280E0B2
:1034E0002E960FB6F894DEBF0FBECDBFCF91DF9101
:1034F0001F910F91FF90EF90DF90BF90AF909F9042
:103500008F907F906F905F904F903F902F90089595
:10351000A8E2B0E0EEE8FAE10C947A286C010E948F
:10352000F61080910B02882309F03FC0D6011C964B
:103530008C91BE016F5F7F4FAE014E5F5F4F9E016A
:103540002B5F3F4F8E010D5F1F4FE7E0EE2EF12CFA
:10355000EC0EFD1E0E94F819882339F100D000D02E
:1035600000D0EDB7FEB731968E01075F1F4FADB7A4
:10357000BEB712961C930E9311978FE190E0938340
:10358000828383EE94E0958384830E94FF28EDB7C5
:10359000FEB736960FB6F894FEBF0FBEEDBF80E0C3
:1035A00061E00E94FA10C801F9C180910B028130DC
:1035B000C1F48091CC0389838091CD038A8380916B
:1035C000C8039091C9039E838D838091CA03909113
:1035D000CB039C838B83809106029091070298878E
:1035E0008F838DB79EB708970FB6F8949EBF0FBE16
:1035F0008DBFEDB7FEB731968E01075F1F4FADB798
:10360000BEB712961C930E9311976FE1E62EF12C24
:10361000F382E2828FED94E09583848384E090E0EE
:10362000C80ED91ED782C6820E94FF28ADB7BEB78A
:1036300018960FB6F894BEBF0FBEADBF80E060E035
:103640000E94FA10C8010E9425112F813885EDB71C
:10365000FEB73A970FB6F894FEBF0FBEEDBF319696
:10366000ADB7BEB712961C930E931197F382E28208
:1036700081ED94E095838483C90154E09595879505
:103680005A95E1F7868317822F703070C90143E0A5
:10369000880F991F4A95E1F7220F331F820F931F5E
:1036A000A4E095958795AA95E1F7808711860E94F9
:1036B000FF28EDB7FEB73A960FB6F894FEBF0FBEDF
:1036C000EDBF86E060E00E94FA10C8010E9425115B
:1036D0008D819E81EB81FC8120910A02213009F4C9
:1036E00055C0213020F0223009F05AC1D1C0898163
:1036F0008130C9F0813030F0823031F1833009F00F
:1037000047C133C000D000D000D0EDB7FEB731962E
:10371000ADB7BEB712961C930E931197F382E28257
:1037200088EC94E029C100D000D000D0EDB7FEB7FE
:103730003196ADB7BEB712961C930E931197F382D4
:10374000E2828BEB94E018C100D000D000D0EDB73E
:10375000FEB73196ADB7BEB712961C930E93119774
:10376000F382E2828FEA94E007C100D000D000D05B
:10377000EDB7FEB73196ADB7BEB712961C930E9358
:103780001197F382E28285EA94E0F6C0AC01E4E0AE
:1037900055954795EA95E1F78F7090709C0173E01D
:1037A000220F331F7A95E1F7880F991F280F391FD1
:1037B00054E0359527955A95E1F789818130C9F014
:1037C000813030F08230A9F1833009F0E1C047C088
:1037D00000D000D000D0EDB7FEB73196ADB7BEB780
:1037E00012961C930E931197F382E28281EA94E081
:1037F000C3C08DB79EB708970FB6F8949EBF0FBE93
:103800008DBFEDB7FEB73196ADB7BEB712961C931C
:103810000E931197F382E28287E994E09583848383
:103820008A81868317820E94FF28EDB7FEB73896FB
:10383000AAC08DB79EB70A970FB6F8949EBF0FBE69
:103840008DBFEDB7FEB73196ADB7BEB712961C93DC
:103850000E931197F382E2828AE894E015C08DB747
:103860009EB70A970FB6F8949EBF0FBE8DBFEDB7F7
:10387000FEB73196ADB7BEB712961C930E93119753
:10388000F382E2828DE794E09583848346835BC074
:10389000CF0160E17EE00E944928362FCF016CE322
:1038A00070E00E944928CB016CE370E00E94492837
:1038B000282F89818130C9F0813030F0823059F170
:1038C000833009F065C048C000D000D000D0EDB70B
:1038D000FEB73196ADB7BEB712961C930E931197F3
:1038E000F382E28289E794E047C08DB79EB70A97DA
:1038F0000FB6F8949EBF0FBE8DBFEDB7FEB73196E1
:10390000ADB7BEB712961C930E931197F382E28265
:103910008AE694E015C08DB79EB70A970FB6F89463
:103920009EBF0FBE8DBFEDB7FEB73196ADB7BEB728
:1039300012961C930E931197F382E2828BE594E02A
:103940009583848336831782208711860E94FF28FF
:10395000EDB7FEB73A9617C000D000D000D0EDB753
:10396000FEB73196ADB7BEB712961C930E93119762
:10397000F382E28287E594E0958384830E94FF28A6
:10398000EDB7FEB736960FB6F894FEBF0FBEEDBF8B
:1039900080E061E00E94FA10CE0109960E94251194
:1039A000A896E8E00C949628A2E0B0E0EAEDFCE1ED
:1039B0000C947A286C01633071F580910B02882396
:1039C000F1F4F60184856CEC73E04DEC53E028ECE7
:1039D00033E00AEC13E07E010894E11CF11C0E9424
:1039E000F81980910A02813029F48091CC03833048
:1039F00009F4EEC081E080930B028FE01DC081309E
:103A000009F0E6C010920B028CE00E94E810C6019B
:103A10000E947319DAC0623091F480910B028823FE
:103A200029F410920A020E946F18D2C0813009F066
:103A3000CFC010920B028CE00E94E810C6C0673025
:103A400009F058C080910B02882339F480910A0252
:103A5000882309F4BAC0815063C0813009F0B8C02E
:103A600080910A02813069F0813020F0823009F0C3
:103A7000ACC020C08091CC03833008F0A6C08F5F1B
:103A800065C08091CC03813039F48091CD038436B8
:103A900008F09BC0865F66C0823009F096C08091B6
:103AA000C8039091C903F1E0803E9F070CF08DC0E0
:103AB000029665C08091CC038150823008F085C0A9
:103AC0008091CA039091CB0328EA803C920708F0CA
:103AD0007CC064E873E00E94492884E893E0FC011C
:103AE0006E9FC0016F9F900D7E9F900D11248C578B
:103AF0009C4F67C0663009F06BC080910B02882331
:103B000091F48091CC03882321F0833011F092E06E
:103B100001C090E080910A02891708F056C08F5FBB
:103B200080930A0252C0813009F052C080910A028B
:103B3000813079F0813020F0823009F046C024C015
:103B40008091CC03882309F440C081508093CC033A
:103B50003CC08091CC03813041F48091CD03882317
:103B6000A1F18A508093CD0330C0823071F58091ED
:103B7000C8039091C903181619063CF50297909353
:103B8000C9038093C80321C08091CC038150823047
:103B9000E0F48091CA039091CB03F3E085389F074E
:103BA000A0F064E873E00E94492884E893E09C0157
:103BB000629FC001639F900D729F900D11248458E5
:103BC00093409093CB038093CA03C6010E94881A46
:103BD0002296E8E00C9496286F927F928F929F92A3
:103BE000AF92BF92CF92DF92EF92FF921F93DF933B
:103BF000CF93CDB7DEB7A0970FB6F894DEBF0FBE58
:103C0000CDBF5C011091CE036090CF037090D003C4
:103C10008090D1039090D2030E94F61080910F0201
:103C20008823C9F58091CE03813049F480EA90E081
:103C30009093D2038093D10380E29DEF0AC082303B
:103C400069F480EA90E09093D2038093D10380E3FB
:103C50009AE29093D0038093CF0329C0833039F543
:103C60008091D1039091D203009719F0803A910589
:103C700031F480E291E09093D2038093D10380915C
:103C8000CF039091D003009719F080529D4F79F4A3
:103C900080E498E3DECF813051F41091CE03809020
:103CA000D1039090D2036090CF037090D0038DB772
:103CB0009EB708970FB6F8949EBF0FBE8DBFEDB7A5
:103CC000FEB731967E010894E11CF11CADB7BEB77A
:103CD0001296FC92EE9211977FE1C72ED12CD382DF
:103CE000C2828AE495E09583848384E090E0A80E04
:103CF000B91EB782A6820E94FF28ADB7BEB718963C
:103D00000FB6F894BEBF0FBEADBF80E060E00E946A
:103D1000FA10C7010E94251180910E02813009F42A
:103D200072C0813020F0823009F012C1BAC0123066
:103D300081F1133030F4112351F0113009F000C13A
:103D400017C01330B9F1143009F0FAC044C000D0E4
:103D500000D000D0EDB7FEB73196ADB7BEB7129622
:103D6000FC92EE921197D382C28281E495E043C027
:103D700000D000D000D0EDB7FEB73196ADB7BEB7DA
:103D80001296FC92EE921197D382C28285E395E05F
:103D900032C000D000D000D0EDB7FEB73196ADB73D
:103DA000BEB71296FC92EE921197D382C28285E240
:103DB00095E021C000D000D000D0EDB7FEB731961D
:103DC000ADB7BEB71296FC92EE921197D382C28223
:103DD00089E195E010C000D000D000D0EDB7FEB76B
:103DE0003196ADB7BEB71296FC92EE921197D38280
:103DF000C2828FE095E0958384830E94FF288DB76F
:103E00009EB7069698C0143018F41130C8F403C059
:103E1000143009F095C000D000D000D0EDB7FEB747
:103E20003196CE010196ADB7BEB712969C938E9394
:103E300011978FE190E0938382838BE095E0DBCF55
:103E4000ADB7BEB71A970FB6F894BEBF0FBEADBFE1
:103E5000EDB7FEB731961296FC92EE921197D3828F
:103E6000C2828EEF94E095838483C40164E09595CB
:103E700087956A95E1F786831782C4018F709070E9
:103E80009C0153E0220F331F5A95E1F7880F991FC9
:103E9000280F391F84E0359527958A95E1F720870B
:103EA00044C0143018F41130C8F403C0143009F0C1
:103EB00047C000D000D000D0EDB7FEB73196CE019C
:103EC0000196ADB7BEB712969C938E9311978FE172
:103ED00090E0938382838AEF94E08DCFADB7BEB735
:103EE0001A970FB6F894BEBF0FBEADBFEDB7FEB7C1
:103EF00031961296FC92EE921197D382C2828BEE8B
:103F000094E095838483C30160E17EE00E944928A8
:103F100066831782C3016CE370E00E944928CB01DD
:103F20006CE370E00E944928808711860E94FF2878
:103F30008DB79EB70A960FB6F8949EBF0FBE8DBF81
:103F400080E061E00E94FA10CE0101960E942511E6
:103F5000A0960FB6F894DEBF0FBECDBFCF91DF9114
:103F60001F91FF90EF90DF90CF90BF90AF909F9008
:103F70008F907F906F900895AEE0B0E0E2ECFFE1AB
:103F80000C947A288C010E94DF05AC0185E08F83B8
:103F900080910E02882321F0833008F04DC033C099
:103FA0008091CE038230C1F0833030F4882349F011
:103FB000813009F041C007C08330B9F08430E1F5A9
:103FC0001EC084E31DC088E388871A8680EA8B8739
:103FD0008DEF8C8780E211C088E388871A8680EA9B
:103FE0008B878AE28C8780E308C098E3988781E01A
:103FF0008A8780E28B879C8780E48D871BC08AE359
:10400000888783E018C08091CE0381508330A0F46C
:1040100088E388872091D1033091D203832F992799
:1040200087FD9A958A872B879091CF038091D00343
:104030008C879D8787E08E835A83498383E290E053
:104040009C838B8381E08D83ECE0EE2EF12CE00EDF
:10405000F11E00E010E06E010894C11CD11CF701B4
:10406000E00FF11FE081EF3F29F0E987C60160E032
:104070000E948D050F5F1F4F0C30110581F72E96A2
:10408000E8E00C949628CF93DF93EC01633009F0BD
:1040900055C080910F02882309F044C02091CE03BF
:1040A000213049F480EA90E09093D2038093D103C9
:1040B00080E29DEF27C0223049F480EA90E090939F
:1040C000D2038093D10380E39AE21CC02330F1F441
:1040D0008091D1039091D203009719F0803A910515
:1040E00031F480E291E09093D2038093D1038091E8
:1040F000CF039091D003009719F080529D4F31F477
:1041000080E498E39093D0038093CF0380910E02D4
:10411000813019F4243009F4DBC081E080930F0270
:104120008FE01DC0813009F0D3C010920F028CE0E7
:104130000E94E810CE010E94BC1FC7C0623091F4FB
:1041400080910F02882329F410920E020E946F18AA
:10415000BFC0813009F0BCC010920F028CE00E94F9
:10416000E810B3C0673009F050C080910F02882377
:1041700039F480910E02882309F4A7C081505BC0F6
:10418000813009F0A5C080910E02813069F0813044
:1041900020F0823009F099C018C08091CE0384309D
:1041A00008F093C08F5F5BC08091CE038150833055
:1041B00008F08BC08091D1039091D20321E0803E22
:1041C00092070CF082C002965AC08091CE038150B3
:1041D000833008F07AC08091CF039091D00338EA01
:1041E000803C930708F071C064E873E00E9449289E
:1041F00084E893E09C01629FC001639F900D729FD1
:10420000900D11248C579C4F5CC0663009F060C043
:1042100080910F02882391F48091CE03882321F0AE
:10422000843011F092E001C090E080910E02891775
:1042300008F04BC08F5F80930E0247C0813009F0B9
:1042400047C080910E02813069F0813018F08230D1
:10425000E1F51AC08091CE038823B9F18150809393
:10426000CE0333C08091CE038150833070F58091AE
:10427000D1039091D203181619063CF5029790933A
:10428000D2038093D10321C08091CE03815083302B
:10429000E0F48091CF039091D00333E08538930709
:1042A000A0F064E873E00E94492884E893E09C0150
:1042B000629FC001639F900D729F900D11248458DE
:1042C00093409093D0038093CF03CE010E94EC1DC6
:1042D000DF91CF9108950895A0E2B0E0E2E7F1E226
:1042E0000C947A288C010E94F6108DB79EB708971F
:1042F0000FB6F8949EBF0FBE8DBFEDB7FEB73196D7
:104300007E010894E11CF11CADB7BEB71296FC9279
:10431000EE9211978FE1C82ED12CD382C28281E513
:1043200095E095838483095F1F4F178306830E945E
:10433000FF288DB79EB708960FB6F8949EBF0FBEA4
:104340008DBF80E060E00E94FA10C7010E94251135
:10435000ADB7BEB718970FB6F894BEBF0FBEADBFCE
:10436000EDB7FEB731961296FC92EE921197D3827A
:10437000C2828EE495E0958384830F5E1F4F17837E
:1043800006830E94FF288DB79EB708960FB6F89453
:104390009EBF0FBE8DBF80E061E00E94FA10C70192
:1043A0000E942511A096E8E00C949628AEE0B0E0BB
:1043B000ECEDF1E20C947E288C016330E9F40E946C
:1043C000DF059A83898383E290E09C838B8381E07D
:1043D0008D8385E08F8384E18887F80185818987D3
:1043E00086818A8784E08E83CE01019660E00E94F8
:1043F0008D050E949C120EC0623019F40E946F1845
:1044000009C0673019F40E945D1804C0663011F4C9
:104410000E9466182E96E4E00C949A280895A8E26B
:10442000B0E0E5E1F2E20C947A288C010E94F610EB
:104430008DB79EB708970FB6F8949EBF0FBE8DBF7D
:10444000EDB7FEB731967E010894E11CF11CADB7C3
:10445000BEB71296FC92EE92119787E2C82ED12C2D
:10446000D382C28289E595E0958384830A5F1F4FDA
:10447000178306830E94FF288DB79EB708960FB654
:10448000F8949EBF0FBE8DBF80E060E00E94FA10DE
:10449000C7010E942511ADB7BEB718970FB6F894A3
:1044A000BEBF0FBEADBFEDB7FEB731961296FC9200
:1044B000EE921197D382C28284E595E0958384833E
:1044C0000F5E1F4F178306830E94FF288DB79EB78C
:1044D00008960FB6F8949EBF0FBE8DBF80E061E0D6
:1044E0000E94FA10C7010E942511A896E8E00C94DA
:1044F0009628EF92FF920F93DF93CF93CDB7DEB75D
:104500002E970FB6F894DEBF0FBECDBF7C01062FED
:10451000633031F50E94DF059A83898383E290E05E
:104520009C838B8391E09D8385E08F839887F7013F
:10453000858189870E837E010894E11CF11CC701E7
:1045400060E00E948D0581E00E94D20482E08887AD
:104550000E83C70160E00E948D050E949C120EC070
:10456000623019F40E946F1809C0673019F40E9474
:104570005D1804C0663011F40E9466182E960FB6BE
:10458000F894DEBF0FBECDBFCF91DF910F91FF90AA
:10459000EF900895A0E1B0E0E0EDF2E20C947C2809
:1045A000FC017B01DB0114968C911497813009F09A
:1045B000A9C016968C911697853009F0A3C017965E
:1045C0008C918D3021F08F3009F09CC047C0DB0109
:1045D00018969C9118978581981709F093C01996A1
:1045E0008C91882319F429E531E002C02DE531E0F2
:1045F000EDB7FEB738970FB6F894FEBF0FBEEDBF0C
:1046000031968E010F5F1F4FADB7BEB712961C9348
:104610000E9311978FE090E09383828387E695E075
:1046200095838483378326830E94FF28EDB7FEB7E6
:1046300038960FB6F894FEBF0FBEEDBF84E061E080
:104640000E94FA10C8010E94251190E0D701199626
:104650008C91811191E09093610154C0DB01189617
:104660009C9118978581981709F04CC019962C9148
:104670001997222339F41A968C91882319F41092F1
:10468000620140C0922F80E0F701228530E0822B4A
:10469000932B4E966CE370E00E945D28609362015C
:1046A0008DB79EB708970FB6F8949EBF0FBE8DBF0B
:1046B000EDB7FEB731968E010F5F1F4FADB7BEB796
:1046C00012961C930E9311978FE090E09383828350
:1046D0008EE595E095838483772767FD70957783D2
:1046E00066830E94FF28EDB7FEB738960FB6F894A0
:1046F000FEBF0FBEEDBF88E061E00E94FA10C80166
:104700000E9425116096E6E00C949828A6E3B0E09C
:10471000ECE8F3E20C9477288C010E94F6108DB738
:104720009EB708970FB6F8949EBF0FBE8DBFEDB72A
:10473000FEB731964FE0E42EF12CEC0EFD1EADB726
:10474000BEB71296FC92EE92119737E2C32ED12C8F
:10475000D382C2828FE695E0958384830A5F1F4FE0
:10476000178306830E94FF28EDB7FEB738960FB671
:10477000F894FEBF0FBEEDBF80E060E00E94FA102B
:10478000C7010E9425118DB79EB708970FB6F89400
:104790009EBF0FBE8DBFEDB7FEB73196ADB7BEB7AA
:1047A0001296FC92EE921197D382C2828CE695E02B
:1047B000958384830F5E1F4F178306830751104034
:1047C0000E94FF28EDB7FEB738960FB6F894FEBFEB
:1047D0000FBEEDBF80E061E00E94FA10C7010E94A9
:1047E00025118FEF80936101809362010E94DF05A4
:1047F0009A83898323E2C22ED12CDC82CB82992436
:1048000093949D8295E0A92EAF828CE08887D80191
:1048100015968C91898783E0B82EBE827E0108941C
:10482000E11CF11CC70160E00E948D0581E00E943F
:10483000D2040E94DF059A838983DC82CB829D8229
:10484000AF828EE08887F80185818987BE82C701A3
:1048500060E00E948D05E696EBE00C949328EF92C1
:10486000FF921F93DF93CF93CDB7DEB72E970FB68E
:10487000F894DEBF0FBECDBF7C01633009F046C0A7
:10488000109161011130C1F4809162011816B4F4E5
:104890000E94DF059A83898383E290E09C838B8367
:1048A0001D8395E09F8380E18887F7018581898753
:1048B0001A861B869E831CC01F3FB1F10E94DF0534
:1048C0009C0180916101882311F49AE001C09BE072
:1048D00085E08F839887F7018581898783E08E83C0
:1048E00081E08D8383E290E09C838B833A832983EC
:1048F000CE01019660E00E948D050E949C1285E029
:104900000E94D204C7010E9486230EC0623019F4AF
:104910000E946F1809C0673019F40E945D1804C026
:10492000663011F40E9466182E960FB6F894DEBF1A
:104930000FBECDBFCF91DF911F91FF90EF900895F3
:10494000DC01149620E030E0FD01E20FF31F8081CE
:10495000681721F4F901ED52FC4F40832F5F3F4F60
:104960002831310589F70895FC01DB0117968C91F8
:1049700017978A32C9F418969C91189719966C91DA
:10498000AF014C5F5F4F20E030E0FA01E20FF31F10
:104990008081981721F4F901ED52FC4F60832F5F5D
:1049A0003F4F2831310589F70895623011F40E9494
:1049B0006F180895AEE0B0E0E0EEF4E20C947528D4
:1049C000049620E030E04FEFF901ED52FC4F4083B8
:1049D0002F5F3F4F28313105B9F78C01FF2433E2B7
:1049E000A32EB12C7724739425E0822E99E2992E80
:1049F00083E0E82E6E010894C11CD11CF80180816F
:104A00008F3FA1F00E94DF059A838983BC82AB822D
:104A10007D828F829886F80180818987EE82C60127
:104A200063E00E948D058AE00E94D204A895F39469
:104A30000F5F1F4FF8E1FF1609F790E020E030E02C
:104A4000F901ED52FC4F8081882321F080818F3F56
:104A500009F09F5F2F5F3F4F2831310589F7892F7C
:104A60002E96EDE00C949128A0E2B0E0EAE3F5E2A6
:104A70000C947A286C010E94F61000D000D000D06F
:104A8000EDB7FEB731968E010F5F1F4FADB7BEB7C2
:104A900012961C930E9311974FE1E42EF12CF382A2
:104AA000E2828CE795E0958384830E94FF282DB7EE
:104AB0003EB72A5F3F4F0FB6F8943EBF0FBE2DBFE3
:104AC00080E060E00E94FA10C8010E942511C60132
:104AD0000E94DA24ADB7BEB718970FB6F894BEBFE0
:104AE0000FBEADBFEDB7FEB7319612961C930E9375
:104AF0001197F382E28222E735E0358324838683AF
:104B000017820E94FF282DB73EB7285F3F4F0FB690
:104B1000F8943EBF0FBE2DBF80E061E00E94FA1006
:104B2000C8010E942511A096E8E00C949628DC01AB
:104B3000FB018781843289F4908515968C919817B2
:104B400061F4918580E0228530E0822B932B909355
:104B5000EC038093EB03109210020895623011F47D
:104B60000E946F180895CF92DF92FF920F931F93C8
:104B7000DF93CF93CDB7DEB72E970FB6F894DEBF95
:104B80000FBECDBF8C016B010E94DF059A83898324
:104B900084E290E09C838B83FF24F394FD8285E084
:104BA0008F8383E28887F8018581898783E08E83FC
:104BB000CE01019663E00E948D05F092100282E022
:104BC0000E94D20480911002882311F081E008C075
:104BD0008091EB039091EC03F6019183808380E058
:104BE0002E960FB6F894DEBF0FBECDBFCF91DF91EA
:104BF0001F910F91FF90DF90CF900895A2E2B0E057
:104C0000E4E0F6E20C947A288C010E94F6108DB74D
:104C10009EB708970FB6F8949EBF0FBE8DBFEDB735
:104C2000FEB7319643E0E42EF12CEC0EFD1EADB73D
:104C3000BEB71296FC92EE9211973FE1C32ED12C93
:104C4000D382C28287EB95E0958384830A5F1F4FEE
:104C500017830683065010400E94FF288DB79EB729
:104C600008960FB6F8949EBF0FBE8DBF80E060E03F
:104C70000E94FA10C7010E942511C801BE016F5F92
:104C80007F4F0E94B325882389F5ADB7BEB718972B
:104C90000FB6F894BEBF0FBEADBFEDB7FEB73196ED
:104CA0001296FC92EE921197D382C28280EB95E02D
:104CB0009583848389819A81089624E095958795C8
:104CC0002A95E1F7978386830E94FF288DB79EB7C8
:104CD00008960FB6F8949EBF0FBE8DBF80E061E0CE
:104CE0000E94FA10C7010E9425111BC000D000D0FD
:104CF0000F92EDB7FEB7319682E0ADB7BEB7119611
:104D00008C9385E895E092838183D80115968C91E8
:104D1000838314820E94020D0F900F900F900F90CA
:104D20000F90A296E8E00C949628FB018091110266
:104D30008823B9F0909112028085891791F48091AF
:104D400011028E7F8093110287818A3451F49185FC
:104D500080E0228530E0822B932B90931402809385
:104D600013020895AEE0B0E0E8EBF6E20C947E2882
:104D70008C010E94DF059C0181E08D8345E04F831B
:104D800088E48887F8018581898794E09A878481FF
:104D900084FD02C085FD4A879091ED038091EE036A
:104DA0008B879C8786E08E8383E290E09C838B8355
:104DB0003A832983CE01019660E00E948D052E96EC
:104DC000E4E00C949A28AEE0B0E0E9EEF6E20C9450
:104DD0007C28082F7B01809312020E94DF059A83B2
:104DE000898383E290E09C838B8311E01D8385E0BF
:104DF0008F8389E48887098783E08E83CE010196BB
:104E000060E00E948D051093110285E00E94D2049B
:104E100080911102882311F081E00AC08091130271
:104E200090911402F701918380831092120280E026
:104E30002E96E6E00C949828A2E2B0E0E2E2F7E2D7
:104E40000C947A286C010E94F61080911502882338
:104E500039F5D60115968C91BE016F5F7F4F0E9488
:104E6000E3268823E9F000D000D000D0EDB7FEB7EC
:104E700031968E010D5F1F4FADB7BEB712961C93D2
:104E80000E9311978FE190E09383828381ED95E0FB
:104E9000958384830E94FF28EDB7FEB736966DC0D8
:104EA00080911502813031F48091ED039091EE03F1
:104EB0009A8389838DB79EB708970FB6F8949EBFE3
:104EC0000FBE8DBFEDB7FEB731968E010D5F1F4F40
:104ED000ADB7BEB712961C930E9311978FE1E82ED3
:104EE000F12CF382E2828DEC95E09583848386E059
:104EF00090E0C80ED91ED782C6820E94FF28ADB7A7
:104F0000BEB718960FB6F894BEBF0FBEADBF80E017
:104F100060E00E94FA10C8010E94251129813A819F
:104F2000EDB7FEB73A970FB6F894FEBF0FBEEDBFD0
:104F30003196ADB7BEB712961C930E931197F382BC
:104F4000E2828AEB95E095838483C90160E17EE08B
:104F50000E94492866831782C9016CE370E00E94B1
:104F60004928CB016CE370E00E94492880871186B4
:104F70000E94FF28EDB7FEB73A960FB6F894FEBF31
:104F80000FBEEDBF80E061E00E94FA10C8010E94F0
:104F90002511A296E8E00C949628CF93DF93EC01BC
:104FA0006330D9F480911502882359F480EB94E0A2
:104FB0009093EE038093ED0381E0809315028FE0E0
:104FC0001BC0813009F062C0109215028CE00E9473
:104FD000E810CE010E94B22656C0623081F4809162
:104FE0001502882319F40E946F1850C0813009F00F
:104FF0004DC0109215028CE00E94E81044C067304A
:1050000001F580911502813009F040C08091ED03D7
:105010009091EE0328EA803C9207A8F56CE271E0DB
:105020000E9449286F5F7F4F8CE291E09C01629F54
:10503000C001639F900D729F900D1124845D9E4F5F
:105040001EC0663019F5809115028130F9F4809107
:10505000ED039091EE0331E08D329307A0F06CE206
:1050600071E00E9449288CE291E09C01629FC0019E
:10507000639F900D729F900D11248C5291409093DC
:10508000EE038093ED03CE010E941C27DF91CF91A8
:105090000895AA1BBB1B51E107C0AA1FBB1FA6177F
:1050A000B70710F0A61BB70B881F991F5A95A9F7D1
:1050B00080959095BC01CD01089597FB092E072698
:1050C0000AD077FD04D0E5DF06D000201AF47095F1
:1050D00061957F4F0895F6F7909581959F4F0895BC
:1050E0002F923F924F925F926F927F928F929F92F8
:1050F000AF92BF92CF92DF92EF92FF920F931F93E6
:10510000CF93DF93CDB7DEB7CA1BDB0B0FB6F89496
:10511000DEBF0FBECDBF09942A88398848885F84D6
:105120006E847D848C849B84AA84B984C884DF8047
:10513000EE80FD800C811B81AA81B981CE0FD11D2B
:105140000FB6F894DEBF0FBECDBFED010895EE0F90
:10515000FF1F0590F491E02D0994FB01DC010590FF
:105160000D920020E1F70895FB01DC014150504011
:1051700048F005900D920020C9F701C01D924150E2
:105180005040E0F70895FB01DC010D900020E9F7A5
:10519000119701900D920020E1F70895AEE0B0E084
:1051A000E4EDF8E20C947E280D891E898F89988D94
:1051B00097FF02C080E090E801979E838D831A8359
:1051C000098386E08C839E01255E3F4FCE010196C8
:1051D000698D7A8DA9010E945A294D815E8157FD02
:1051E0000AC02F813885421753070CF49A01020F29
:1051F000131FF80110822E96E4E00C949A28AEE07A
:10520000B0E0E5E0F9E20C947E280D891E898F89D3
:10521000988D97FF02C080E090E801979E838D8370
:105220001A8309838EE08C839E01255E3F4FCE0159
:105230000196698D7A8DA9010E945A294D815E815E
:1052400057FD0AC02F813885421753070CF49A0185
:10525000020F131FF80110822E96E4E00C949A2896
:10526000AEE0B0E0E6E3F9E20C947E288C0177FF33
:1052700002C060E070E8615070407E836D831A83E5
:1052800009838EE08C83CE010196BA01A9010E94A8
:105290005A292D813E8137FD09C0EF81F8852E17EF
:1052A0003F070CF4F901E00FF11F10822E96E4E0A5
:1052B0000C949A28ABE0B0E0E0E6F9E20C94702898
:1052C0003C012B015A01FC0117821682838181FD6A
:1052D00003C06FEF7FEFC6C19AE0892E1E010894CC
:1052E000211C311CF3012381F20123FD859123FF51
:1052F00081912F01882309F4B2C1853239F423FD4D
:10530000859123FF81912F01853229F490E0B3012B
:105310000E947D2BE7CF982FFF24EE249924FFE1F4
:10532000FF15D0F09B3269F09C3228F4903259F08E
:10533000933291F40EC09D3249F0903369F441E00C
:1053400024C052E0F52A84E0F82A28C098E0F92A1F
:1053500025C0E0E1FE2A22C0F7FC29C0892F805336
:105360008A3070F4F6FE05C0989C902C1124980E9B
:1053700015C0E89CE02C1124E80EF0E2FF2A0EC0D4
:105380009E3229F4F6FC6BC140E4F42A07C09C3637
:1053900019F450E8F52A02C0983649F4F20123FDC9
:1053A000959123FF91912F01992309F0B8CF892F6F
:1053B0008554833018F08052833038F444E050E054
:1053C000A40EB51E5FE359830FC0933631F09337B7
:1053D00079F0933509F056C020C0F50180818983AA
:1053E00042E050E0A40EB51E610101E010E012C0E1
:1053F000F501C080D180F6FC03C06FEF7FEF02C0E3
:10540000692D70E042E050E0A40EB51EC6010E9476
:10541000722B8C015FE7F52214C0F501C080D180AA
:10542000F6FC03C06FEF7FEF02C0692D70E042E031
:1054300050E0A40EB51EC6010E94672B8C0150E8F7
:10544000F52AF3FE07C01AC080E290E0B3010E9483
:105450007D2BEA948E2D90E008171907A8F30EC053
:10546000F601F7FC8591F7FE81916F0190E0B301A1
:105470000E947D2BE110EA940150104001151105A6
:1054800079F7EAC0943611F0993669F5F7FE08C04D
:10549000F501208131814281538184E090E00AC08E
:1054A000F501808191819C01442737FD4095542F5F
:1054B00082E090E0A80EB91E9FE6F92257FF09C0CE
:1054C00050954095309521953F4F4F4F5F4FE0E805
:1054D000FE2ACA01B901A1012AE030E00E94A92BED
:1054E000D82ED21840C0953729F41F2D1F7E2AE0F0
:1054F00030E01DC01F2D197F9F3661F0903720F4DA
:10550000983509F0ACC00FC0903739F0983709F0E2
:10551000A6C004C028E030E00AC0106114FD146089
:1055200020E130E004C014FD166020E132E017FFF6
:1055300008C0F501608171818281938144E050E06F
:1055400008C0F50180819181BC0180E090E042E0DB
:1055500050E0A40EB51EA1010E94A92BD82ED2188E
:105560008FE7F82EF122F6FE0BC05EEFF522D9147C
:1055700038F4F4FE07C0F2FC05C08FEEF82202C03A
:105580001D2D01C0192DF4FE0DC0FE01ED0DF11D04
:105590008081803319F499EEF92208C01F5FF2FE72
:1055A00005C003C08F2D867809F01F5F0F2DF3FC17
:1055B00014C0F0FE0FC01E1510F09D2C0BC09D2CCA
:1055C0009E0C911A1E2D06C080E290E0B3010E944D
:1055D0007D2B1F5F1E15C0F304C01E1510F4E11AC9
:1055E00001C0EE2404FF0FC080E390E0B3010E94ED
:1055F0007D2B02FF1DC001FD03C088E790E00EC0B7
:1056000088E590E00BC0802F867891F001FF02C002
:105610008BE201C080E2F7FC8DE290E0B3010E94D2
:105620007D2B06C080E390E0B3010E947D2B9A940D
:10563000D914C0F3DA94F101ED0DF11D808190E0F1
:10564000B3010E947D2BDD20A9F706C080E290E027
:10565000B3010E947D2BEA94EE20C1F743CEF30103
:1056600066817781CB012B96E2E10C948C28DC01DA
:10567000CB01FC01F999FECF06C0F2BDE1BDF89A5D
:10568000319600B40D9241505040B8F70895F99901
:10569000FECF92BD81BDF89A992780B50895DC01AF
:1056A000CB0103C02D910E945A2B41505040D0F79E
:1056B0000895262FF999FECF1FBA92BD81BD20BD56
:1056C0000FB6F894FA9AF99A0FBE01960895FC0164
:1056D0000590615070400110D8F7809590958E0F1D
:1056E0009F1F0895FC016150704001900110D8F790
:1056F000809590958E0F9F1F08950F931F93CF93C2
:10570000DF938C01EB018B8181FF1BC082FF0DC0F9
:105710002E813F818C819D812817390764F4E881AF
:10572000F9810193F983E88306C0E885F985802F24
:105730000995892B31F48E819F8101969F838E83F9
:1057400002C00FEF1FEFC801DF91CF911F910F91A2
:105750000895FA01AA27283051F1203181F1E89407
:105760006F936E7F6E5F7F4F8F4F9F4FAF4FB1E054
:105770003ED0B4E03CD0670F781F891F9A1FA11D4F
:10578000680F791F8A1F911DA11D6A0F711D811D50
:10579000911DA11D20D009F468943F912AE0269F15
:1057A00011243019305D3193DEF6CF010895462F74
:1057B0004770405D4193B3E00FD0C9F7F6CF462F55
:1057C0004F70405D4A3318F0495D31FD40524193BE
:1057D00002D0A9F7EACFB4E0A6959795879577957B
:1057E0006795BA95C9F700976105710508959B0102
:1057F000AC010A2E06945795479537952795BA958B
:10580000C9F7620F731F841F951FA01D0895F89498
:02581000FFCFC8
:105812000A003E25732E2E0025732C20253032647B
:105822002E253032642E256400253032643A25302C
:10583200326420556872004665686C657220256482
:105842003A004665686C65723A2050616765747902
:105852007000256420756E62656B616E6E7400A0C7
:105862000020FD302A200140386175730065696EA1
:0458720000FFFF0034
:00000001FF
